:100000000C9447050C946F050C946F050C946F05C8
:100010000C946F050C946F050C946F050C946F0590
:100020000C946F050C946F050C946F050C946F0580
:100030000C946F050C946F050C946F050C946F0570
:100040000C94870B0C946F050C946F050C946F0542
:100050000C946F050C946F050C946F050C946F0550
:100060000C94D10B0C946F05000103070F1F3F7F09
:100070000080C0E0F0F8FCFE00000000003E5B4F96
:100080005B3E3E6B4F6B3E1C3E7C3E1C183C7E3CF8
:10009000181C577D571C1C5E7F5E1C00183C180006
:1000A000FFE7C3E7FF0018241800FFE7DBE7FF3096
:1000B000483A060E2629792926407F050507407F04
:1000C00005253F5A3CE73C5A7F3E1C1C08081C1C77
:1000D0003E7F14227F22145F5F005F5F06097F016D
:1000E0007F006689956A606060606094A2FFA29458
:1000F00008047E040810207E201008082A1C080826
:100100001C2A08081E101010100C1E0C1E0C303873
:100110003E3830060E3E0E06000000000000005F74
:1001200000000007000700147F147F14242A7F2A90
:100130001223130864623649562050000807030052
:10014000001C2241000041221C002A1C7F1C2A089E
:10015000083E080800807030000808080808000001
:1001600060600020100804023E5149453E00427F75
:10017000400072494949462141494D331814127FC4
:100180001027454545393C4A494931412111090764
:100190003649494936464949291E000014000000E5
:1001A00040340000000814224114141414140041B7
:1001B00022140802015909063E415D594E7C121174
:1001C000127C7F494949363E414141227F414141AC
:1001D0003E7F494949417F090909013E4141517327
:1001E0007F0808087F00417F41002040413F017F98
:1001F000081422417F404040407F021C027F7F0460
:1002000008107F3E4141413E7F090909063E4151A8
:10021000215E7F09192946264949493203017F0198
:10022000033F4040403F1F2040201F3F4038403F99
:10023000631408146303047804036159494D4300AF
:100240007F4141410204081020004141417F0402E6
:10025000010204404040404000030708002054547D
:1002600078407F284444383844444428384444285B
:100270007F385454541800087E090218A4A49C78AE
:100280007F0804047800447D40002040403D007F0A
:100290001028440000417F40007C047804787C08EA
:1002A0000404783844444438FC18242418182424BE
:1002B00018FC7C08040408485454542404043F44A3
:1002C000243C4040207C1C2040201C3C4030403CD2
:1002D00044281028444C9090907C4464544C440032
:1002E0000836410000007700000041360800020196
:1002F0000204023C2623263C1EA1A161123A404082
:10030000207A3854545559215555794122545478FE
:1003100042215554784020545579400C1E52721297
:100320003955555559395454545939555454580020
:1003300000457C410002457D420001457C407D1224
:1003400011127DF0282528F07C5455450020545486
:100350007C547C0A097F4932494949323A44444431
:100360003A324A4848303A4141217A3A424020786C
:10037000009DA0A07D3D4242423D3D4040403D3C6D
:1003800024FF2424487E4943662B2FFC2F2BFF0992
:1003900029F620C0887E0903205454794100004486
:1003A0007D413048484A32384040227A007A0A0A71
:1003B000727D0D19317D2629292F282629292926E4
:1003C00030484D4020380808080808080808382F29
:1003D00010C8ACBA2F102834FA00007B00000814B3
:1003E0002A142222142A14085500550055AA55AA89
:1003F00055AAFF55FF55FF000000FF00101010FF29
:1004000000141414FF001010FF00FF1010F010F083
:10041000141414FC001414F700FF0000FF00FF1474
:1004200014F404FC141417101F10101F101F1414C0
:10043000141F00101010F0000000001F101010100A
:100440001F10101010F010000000FF1010101010FE
:1004500010101010FF10000000FF140000FF00FF3C
:1004600000001F10170000FC04F4141417101714D8
:1004700014F404F40000FF00F714141414141414FA
:10048000F700F7141414171410101F101F1414146D
:10049000F4141010F010F000001F101F0000001FD7
:1004A00014000000FC140000F010F01010FF10FF0A
:1004B000141414FF141010101F00000000F010FF9F
:1004C000FFFFFFFFF0F0F0F0F0FFFFFF0000000083
:1004D00000FFFF0F0F0F0F0F3844443844FC4A4A07
:1004E0004A347E02020606027E027E0263554941BC
:1004F000633844443C04407E201E2006027E0202F3
:1005000099A5E7A5991C2A492A1C4C7201724C3006
:100510004A4D4D303048784830BC625A463D3E49DD
:100520004949007E0101017E2A2A2A2A2A44445F81
:10053000444440514A444040444A51400000FF0175
:1005400003E080FF000008086B6B08361236243683
:10055000060F090F060000181800000010100030E8
:1005600040FF0101001F01011E00191D1712003C70
:100570003C3C3C00000000002200FF210000000085
:1005800000240027002A00DB40A4A62EAF2000A1F3
:10059000C8D300408DAED580A800000000250028FB
:1005A000002B0000006000000000000000000000C0
:1005B00000000000E000000000000000000000005B
:1005C000000001E00000000000000000000000004A
:1005D0000001F0000000000000000000000000002A
:1005E00003F0000000000000000000000000000711
:1005F000F00000000000000000000000000007F80C
:10060000000000000000000000000000000FF800E3
:10061000000003C0007E000001E0007F0FF8000032
:100620000003C000FE000001E000FFEFF800000042
:1006300003C000FE000001E000FFFFF8000000031F
:10064000C000F00000000F007FFE7FC0000003C06C
:1006500000F00000000F003FFE7FF83FF1FBCFFCF1
:10066000FEF3BC3DEFE01FFE7FFF7FFBFFDFFEFEE2
:10067000FFBC3DEFE01FC6FFFF7FFBFFDFFEFEFF7D
:10068000BC3DEFE00FE3C7FE787BC3DE1EF0FFBC8E
:100690003DEF0007FF87FC787BC3DE1EF0F83C3D92
:1006A000EF0001FFFFF0007BC3C01EF0F03C3DEF08
:1006B0000001F37FE03FFBC3CFFEF0F03C3DEF00D5
:1006C00003E33F807FFBC3DFFEF0F03C3DEF00071C
:1006D000E73C00787BC3DE1EF0F03C3DEF0007FFF7
:1006E000BE00787BC3DE1EF0F03C3DEF0007FFFE4E
:1006F00000787BC3DE1EF0F03C3DEF000FFFFE00F4
:100700007FFBFFDFFEF0F03FFDEFE00FFFFF007F1C
:10071000FBFFDFFEF0F03FFDEFE00FF9FF003E7959
:10072000F9CF9EF0F01F3DE7E01FF1FF0000000051
:1007300000000000000000001F80FF007FFFFFFF9F
:10074000FFFFFFFFFFFFE01C007F007FFFFFFFFEBA
:10075000B46D888D18E000001F007FFFFFFFFE953D
:10076000AD7DB577E000000F007FFFFFFFFEA5AD78
:100770009D8D19E0000006007FFFFFFFFEB5ADED87
:10078000B57EE000000000000180000000000000D5
:10079000000000038000000000000000000007C00F
:1007A00000000000000000000007C0000000000082
:1007B000000000000FC00000000000000000001F4B
:1007C000E00000000000000000001FE0000000004A
:1007D00000000000003FE0000000000000000000FA
:1007E0003FF00000000000000000007FF00000006B
:1007F000000000001FF87FF0000000000000003F34
:10080000FE7FF0000000000000003FFF7FF00000CE
:1008100000000000001FFFFBE000000000000000DF
:100820000FFFF9FFC00000000000000FFFF9FFF804
:1008300000000000000007FFF1FFFF0000000000C3
:100840000003FC73FFFF80000000000001FE3FFF7B
:10085000FF80000000000000FF1E0FFF00000000EE
:100860000000007FFE1FFC000000000000003FFFB2
:10087000FFF8000000000000000FDFFFE0000000B4
:10088000000000001F19FFC0000000000000003F32
:100890003CFF00000000000000007E7CF80000002B
:1008A00000000000007FFE7C00000000000000004F
:1008B000FFFFFC0000000000000000FFFFFE000042
:1008C000000000000000FFFFFE000000000000002C
:1008D00001FFEFFE0000000000000001FFCFFE005E
:1008E00000000000000003FF07FE00000000000001
:1008F0000003FC07FE0000000000000003F003FE00
:1009000000000000000000018000FE000000000068
:1009100000000000007E0000000000000000000059
:100920003E000000000000000000000C000000007D
:100930000000078000FC000003C0000000078001E9
:10094000FC000003C0000000078001FC000003C0A1
:10095000000000078001E00000001E00000007808A
:1009600001E00000001E007FE3F79FF9FDE7787BC0
:10097000DFC0FFF7FFBFFDFDFF787BDFC0FFF7FFA4
:10098000BFFDFDFF787BDFC0F0F787BC3DE1FF785E
:100990007BDE00F0F787BC3DE1F0787BDE0000F7FE
:1009A00087803DE1E0787BDE007FF7879FFDE1E017
:1009B000787BDE00FFF787BFFDE1E0787BDE00F0AB
:1009C000F787BC3DE1E0787BDE00F0F787BC3DE1D6
:1009D000E0787BDE00F0F787BC3DE1E0787BDE006D
:1009E000FFF7FFBFFDE1E07FFBDFC0FFF7FFBFFDCB
:1009F000E1E07FFBDFC07CF3F39F3DE1E03E7BCF96
:100A0000C00000000000000000000000FFFFFFFF2A
:100A1000FFFFFFFFFFFFC0FFFFFFFFFD68DB111AB5
:100A200031C0FFFFFFFFFD2B5AFB6AEFC0FFFFFF46
:100A3000FFFD4B5B3B1A33C0FFFFFFFFFD6B5BDB32
:100A40006AFDC00000000023002600290004040401
:100A50000404040404020202020202030303030367
:100A60000301020408102040800102040810200144
:100A70000204081020000000080002010000030426
:100A800007000000000000000000A81499141124C1
:100A90001FBECFEFD8E0DEBFCDBF11E0A0E0B1E0D8
:100AA000EEE4F3E302C005900D92AA36B107D9F740
:100AB00022E0AAE6B1E001C01D92A837B207E1F733
:100AC00015E0C6E4D5E004C02197FE010E94671836
:100AD000C534D107C9F70E9403150C949A190C94D8
:100AE00000003FB7F8948091D2019091D301A0917A
:100AF000D401B091D50126B5A89B05C02F3F19F0B0
:100B00000196A11DB11D3FBFBA2FA92F982F88278D
:100B1000820F911DA11DB11DBC01CD0142E0660FE8
:100B2000771F881F991F4A95D1F7089585ED809307
:100B3000BC008091BC0084FDFCCF1092FC010895A4
:100B40004091AA01262F30E0240F311D21323105BA
:100B5000DCF42091FC012430C9F4FC0180E090E039
:100B6000861758F43091AA012191DC01A657BE4F97
:100B7000A30FB11D2C930196F3CF8091AA01680FAA
:100B80006093AA0180E0089581E0089582E00895CD
:100B9000089508950895E091720280917102E81716
:100BA00030F4F0E0E659FE4F808190E008958FEF39
:100BB0009FEF08959091720280917102981750F4FE
:100BC000E92FF0E0E659FE4F208130E09F5F9093DF
:100BD000720202C02FEF3FEFC901089580917102A8
:100BE00090E020917202821B91090895CF92DF92CA
:100BF000EF92FF920F931F93CF93DF937C01CB0172
:100C00008A012091FD01222389F0EB016B01C40EC2
:100C1000D51ECC15DD0569F06991D701ED91FC91E8
:100C20000190F081E02DC7010995F3CF642F0E9458
:100C3000A005C801DF91CF911F910F91FF90EF9018
:100C4000DF90CF900895CF93DF931F92CDB7DEB79B
:100C500069832091FD012223D1F0209120022032CE
:100C600040F021E030E0FC013383228380E090E01B
:100C700015C08091FE01E82FF0E0E150FE4F998110
:100C800090838F5F8093FE018093200205C061E016
:100C9000CE0101960E94A00581E090E00F90DF91C7
:100CA000CF910895FC0177FDB9C0808591856817C3
:100CB00079070CF0B3C057FDB1C082859385481702
:100CC00059070CF008958689823079F484819581E2
:100CD000DC01A61BB70BBD016150710986819781AC
:100CE000DC01A41BB50BAD010EC0833009F084C03C
:100CF00064277527CA0186279727682779274681A1
:100D00005781481B590B415051092130310531F0B1
:100D100048F12230310509F44AC00895CA0157FD4F
:100D200007969C01A3E035952795AA95E1F7A48144
:100D3000B5812A9FC0012B9F900D3A9F900D1124E1
:100D4000680F791F078CF0A1E02DE60FF71F4770A1
:100D5000552781E090E001C0880F4A95EAF790811D
:100D6000892B48C0CA0157FD07969C0193E0359531
:100D700027959A95E1F7A481B5812A9FC0012B9F01
:100D8000900D3A9F900D1124680F791F078CF0A1E8
:100D9000E02DE60FF71F4770552781E090E001C076
:100DA000880F4A95EAF780959081892323C0CA016C
:100DB00057FD07969C0183E0359527958A95E1F7C5
:100DC000A481B5812A9FC0012B9F900D3A9F900D61
:100DD0001124680F791F078CF0A1E02DE60FF71F93
:100DE0004770552781E090E001C0880F4A95EAF7E7
:100DF0009081892780830895813009F086CF642708
:100E00007527462757276427752784819581DC013C
:100E1000A61BB70BBD016150710977CF08950895E6
:100E2000FC016370668B84819581268137816130F6
:100E300039F0633029F091878087338722870895BE
:100E4000318720879387828708956F927F928F9250
:100E50009F92AF92BF92CF92DF92EF92FF920F9349
:100E60001F93CF93DF93EC014B015A0169013801C5
:100E7000E881F9810284F385E02D0995E881F98103
:100E80000288F389E02D87019601A501B401CE0106
:100E90000995A501460D571D41505109E881F98179
:100EA0000288F389E02D9601B401CE010995E8810D
:100EB000F9810088F189E02D9301A501B401CE01EB
:100EC0000995C80CD91CB60161507109E881F981F6
:100ED0000088F189E02D9301A501CE010995E881F3
:100EE000F9810688F789E02DCE01DF91CF911F911E
:100EF0000F91FF90EF90DF90CF90BF90AF909F90B9
:100F00008F907F906F9009948F929F92AF92BF9233
:100F1000CF92DF92EF92FF920F931F93CF93DF93C5
:100F20004C016B015A01E901DC01ED91FC91621762
:100F3000730781F40417150724F48B2D5801042F2F
:100F4000182F0A191B0998012F5F3F4F048CF58D4C
:100F5000E02D12C04017510709F52617370724F472
:100F60008D2D6901C62FD82F9E012C193D092F5FA9
:100F70003F4F068CF78DE02D8701A501B601C40116
:100F80000995DF91CF911F910F91FF90EF90DF9026
:100F9000CF90BF90AF909F908F9008950284F3857B
:100FA000E02D0995D401ED91FC910488F589E02D9F
:100FB0009E01A501B601C4010995D401ED91FC91F2
:100FC0000688F789E02DC401DF91CF911F910F9121
:100FD000FF90EF90DF90CF90BF90AF909F908F9059
:100FE0000994EF92FF920F931F93DC011A960D91D3
:100FF0001C911B9718962D913C911997ED91FC919E
:1010000000A0F1A1E02D7B0140E050E060E070E045
:1010100009951F910F91FF90EF9008954F925F9265
:101020006F927F928F929F92AF92BF92CF92DF92F8
:10103000EF92FF920F931F93CF93DF936C012B01DD
:101040005A0139014801DC01ED91FC910284F385DC
:10105000E02D0995E201640C751CD601ED91FC911F
:10106000C615D7055CF40088F189E02D870194014D
:10107000A501BE01C60109952196EFCF0688F78923
:10108000E02DC601DF91CF911F910F91FF90EF905E
:10109000DF90CF90BF90AF909F908F907F906F9098
:1010A0005F904F9009948F929F92AF92BF92CF9290
:1010B000DF92EF92FF920F931F93CF93DF93EC0198
:1010C0005B014A016901E881F9810284F385E02D21
:1010D000099595012C0D3D1D21503109E881F981BB
:1010E0000488F589E02D78018401A401B501CE01C1
:1010F0000995E881F9810688F789E02DCE01DF9115
:10110000CF911F910F91FF90EF90DF90CF90BF9004
:10111000AF909F908F9009948F929F92AF92BF92C1
:10112000CF92DF92EF92FF920F931F93CF93DF93B3
:10113000EC015B014A0169017801E881F9810284CF
:10114000F385E02D0995C80CD91C860101501109C1
:10115000E881F9810488F589E02D9501A401B501A4
:10116000CE010995E881F9810688F789E02DCE0145
:10117000DF91CF911F910F91FF90EF90DF90CF9073
:10118000BF90AF909F908F900994EF92FF920F9332
:101190001F93DC01ED91FC9100A0F1A1E02D0995D8
:1011A0001F910F91FF90EF9008950F931F93DC0113
:1011B000ED91FC91068CF78DE02D09951F910F9113
:1011C00008950F931F93DC01ED91FC91048CF58D34
:1011D000E02D09951F910F910895DC01ED91FC918F
:1011E0000084F185E02D09942F923F924F925F92F7
:1011F0006F927F928F929F92AF92BF92CF92DF9227
:10120000EF92FF920F931F93CF93DF9300D000D004
:1012100000D0CDB7DEB72C017E836D836A01590102
:10122000C801FC82EB824801841A950A97FE03C02C
:1012300091948194910835012D813E81621A730A3F
:1012400077FE03C0719461947108681479045CF4AA
:101250003A2D2B2D5C01832F922F3D812E81DE8232
:10126000CD82C32ED22EAD81BE81AA16BB065CF400
:101270003C2D2D2D6C01832F922F3D812E81BE821E
:10128000AD82A32EB22E85012D813E81021B130B50
:101290001C012C183D0837FE03C0319421943108FD
:1012A000780117FF03C03FEFE31AF30AF594E794C0
:1012B000C816D9062CF08FEF9FEF9A83898304C05C
:1012C000A1E0B0E0BA83A9832D813E81A216B306C6
:1012D00024F1D201ED91FC910484F585E02D2B8160
:1012E0003C816814790424F44D815E81B60103C009
:1012F000A6016D817E81C2010995E218F308F7FE0F
:1013000006C029813A81C20ED31EE00EF11E8D81E6
:101310009E8101969E838D83D7CF26960FB6F89433
:10132000DEBF0FBECDBFDF91CF911F910F91FF9018
:10133000EF90DF90CF90BF90AF909F908F907F9075
:101340006F905F904F903F902F900895089580E0A8
:1013500090E008950F931F93CF93DF93DC0156968F
:10136000EC915697E23071F0E330E9F0E13079F535
:10137000FB0114960D90BC91A02DA41BB50BA21BD4
:10138000B30B18C0EC01EC81FD81E61BF70BBF012C
:1013900061507109EE81FF81DF01A41BB50BAD0126
:1013A000421B530B14C0DA01EC01EE81FF81E61BF6
:1013B000F70B3197F7FD0DC0EC014E815F81E4170B
:1013C000F5073CF4AF01BD010E94F91202C00E9472
:1013D0006013DF91CF911F910F9108950F931F9389
:1013E000DC015696EC915697E23061F0E33009F15A
:1013F000E13081F51496ED91FC911597E41BF50B06
:10140000319723C0DC011496ED91FC911597DF0113
:10141000A61BB70BBD01DC011696ED91FC91179749
:10142000DF01A41BB50BAD0141505109621B730BC9
:1014300011C0FA01DC0116964D915C911797DA0103
:10144000A61BB70BBD01621B730BAB01BF010E9452
:1014500060130CC057FD0AC0DC011696ED91FC919B
:1014600017974E175F0714F40E94F9121F910F91FE
:1014700008958F929F92AF92CF92EF92FF920F9327
:101480001F93CF93DF93EC01262F898D9A8D0097C0
:1014900009F042C06A3059F41D861C862D898E855C
:1014A0009F8538E0239F800D911D112443C06D302E
:1014B00009F4AAC08F898823C9F03C898C859D8551
:1014C00046E0349F800D911D1124488559854817A9
:1014D000590764F41D861C863D898E859F8548E0EA
:1014E000349F800D911D11249F878E87EA88FB8889
:1014F000088919894E855F856C857D85AD88CC8886
:10150000CE010E94C5102C898C859D8536E0239FD5
:10151000800D911D11243EC06A3079F41D861C8611
:101520002D89FC013896E4918E859F852E9F800D34
:10153000911D11249F878E8767C06D3009F464C0A8
:10154000FC0134963491631708F45EC03296E4913E
:10155000E61708F459C0462F431B342FFC0132967E
:101560008590949047E0349F800C911C1124F401E5
:10157000329634913196E491332311F0E1110DC08C
:10158000F4013496E4912C898C859D85E29F800D31
:10159000911D11249D878C8737C0F40135964491A5
:1015A0005F89552319F15C89E32FF0E0E40FF11D09
:1015B00047FDFA955E9FB0015F9F700D11244C8529
:1015C0005D85460F571F688579856417750774F424
:1015D0001D861C863D89FC013896E4918E859F8589
:1015E0003E9F800D911D11249F878E87EA88FB887E
:1015F000088919894E855F856C857D85AD88CC8885
:10160000CE010E94C510BCCF81E090E0DF91CF9168
:101610001F910F91FF90EF90CF90AF909F908F9080
:101620000895CF93DF9390E0FC01EF59F54F24919B
:10163000FC01E35BF54F8491882361F190E0880F12
:10164000991FFC01E358FA4FC591D491FC01E7566C
:10165000FA4FA591B491611109C09FB7F8948881A0
:10166000209582238883EC912E230BC0623061F495
:101670009FB7F8948881322F309583238883EC912B
:101680002E2B2C939FBF06C08FB7F894E8812E2B8A
:1016900028838FBFDF91CF9108958F929F92AF9251
:1016A000BF92CF92DF92EF92FF926B017C010E947A
:1016B00071054B015C01C114D104E104F104F1F0A6
:1016C0000E947105DC01CB0188199909AA09BB099F
:1016D000883E9340A105B10570F321E0C21AD108FC
:1016E000E108F10888EE880E83E0981EA11CB11C69
:1016F000C114D104E104F10419F7DDCFFF90EF909C
:10170000DF90CF90BF90AF909F908F9008951F92E1
:101710000F920FB60F9211242F933F938F939F93A5
:10172000AF93BF938091CE019091CF01A091D00152
:10173000B091D1013091CD0123E0230F2D3720F45A
:101740000196A11DB11D05C026E8230F0296A11D1B
:10175000B11D2093CD018093CE019093CF01A09332
:10176000D001B093D1018091D2019091D301A09189
:10177000D401B091D5010196A11DB11D8093D20174
:101780009093D301A093D401B093D501BF91AF91B1
:101790009F918F913F912F910F900FBE0F901F90AF
:1017A00018951F920F920FB60F9211242F933F930B
:1017B0004F935F936F937F938F939F93AF93BF9359
:1017C000EF93FF938091B900887F803609F49CC025
:1017D00068F5883209F45BC090F4803109F454C094
:1017E00038F4882309F4F6C0883009F44DC0F6C0F7
:1017F000883109F44CC0803209F45DC0EFC08034F8
:1018000009F468C048F4803309F455C0883309F0FE
:10181000E5C08093FA01D8C0803509F44FC08835FF
:1018200009F45DC0883409F0D9C0D6C0883909F4FC
:10183000C7C0A8F4883709F467C038F4883609F4BB
:1018400063C0803709F460C0C9C0883809F4B8C0E3
:10185000803909F45FC0803809F0C0C05BC0803BAC
:1018600009F486C038F4803A09F466C0883A09F46D
:101870007FC0B4C0803C09F4A7C0883C09F4A4C070
:10188000883B09F48AC0AAC08091D70110C090910A
:10189000F9018091F801981770F5E091F90181E064
:1018A0008E0F8093F901F0E0E852FE4F8081809323
:1018B000BB0085EC86C08093FA018EC0E091F901EF
:1018C00081E08E0F8093F9018091BB00F0E0E85237
:1018D000FE4F80839091F9018091F8016EC0E091F4
:1018E000F90181E08E0F8093F9018091BB00F0E057
:1018F000E852FE4F80838091FB0181116DC081E031
:101900008093D60184EA61C083E08093FC01109249
:10191000CC01CFCF8091CC01803208F051C0E09152
:10192000CC0181E08E0F8093CC018091BB00F0E070
:10193000E455FE4F8083BDCF85EC8093BC001092B0
:10194000FC018091CC01803230F4E091CC01F0E0D8
:10195000E455FE4F10826091CC0170E0E0916D0281
:10196000F0916E028CEA91E009951092CC0136C09C
:1019700084E08093FC011092AB011092AA01E091E7
:101980006F02F091700209958091AA01811105C042
:1019900081E08093AA0110928A01E091AB0181E07D
:1019A0008E0F8093AB01F0E0E657FE4F808180936D
:1019B000BB009091AB018091AA01981708F479CFF0
:1019C00085E88093BC000AC085EC8093BC0010922F
:1019D000FC0104C01092FA010E949605FF91EF915C
:1019E000BF91AF919F918F917F916F915F914F9137
:1019F0003F912F910F900FBE0F901F901895089553
:101A00008EBD00000DB407FEFDCF8EB508951F9367
:101A1000CF93DF93FC01858D968D009729F1162FCA
:101A2000EF0121A131E03093FD0120931F021092BC
:101A3000FE0110922002DC01ED91FC910190F081F9
:101A4000E02D60E009958D8D9E8DDC01ED91FC917E
:101A50000190F081E02D612F09958D8D9E8DDF9194
:101A6000CF911F910C94C70DA5A5B6A59C9183A9F4
:101A7000809589238C93838D948D892B31F0862FCB
:101A8000DF91CF911F910C94000D28E030E080E8A9
:101A9000A1A5B2A591A9462F482319F04C91942BEA
:101AA00003C04C91909594239C93A3A5B4A54C910D
:101AB00092A9942B9C93A3A5B4A54C9192A990951F
:101AC00094239C9386952150310911F7DF91CF9192
:101AD0001F9108958CBD9DBD08951F93CF93DF93F3
:101AE000EC01162F8D8D9E8D892BB1F02DA93EA96D
:101AF0004FA958AD60E074E284EF90E00E94451871
:101B0000DA01C9014097A109B109B695A795979542
:101B100087958093B8000FC08B8D9C8D892B21F009
:101B20008EAD9FAD0E946A0DEFA5F8A990818CA99A
:101B3000809589238083111102C066EA01C067EA9B
:101B4000CE010E94070D8D8D9E8D892BB1F029ADA0
:101B50003AAD4BAD5CAD60E074E284EF90E00E9482
:101B60004518DA01C9014097A109B109B695A795B1
:101B7000979587958093B80006C0EFA5F8A9908146
:101B80008CA9892B8083DF91CF911F91089530918B
:101B90002002313208F04BC08091FC018111FCCF52
:101BA00090911F0222E02093FC0121E02093FB0191
:101BB0002FEF2093FA011092F9013093F801EFEF23
:101BC000F1E0A8EDB1E020E0321721F041914D9312
:101BD0002F5FFACF1092D7012091D701990F922B46
:101BE0009093D7019091D601913061F41092D60173
:101BF0009091D7019093BB009091BC0093FDF8CFDA
:101C000095EC01C095EE9093BC009091FC01923050
:101C1000E1F39091FA019F3F79F08091FA018032CF
:101C200041F08091FA01803331F084E005C081E019
:101C300003C082E001C083E01092FE0110922002F6
:101C40001092FD010895DF92EF92FF920F931F9380
:101C5000CF93DF93D82ED92FC62F80913E0290913B
:101C60003F02009709F454C02091420231E03093C2
:101C7000FD0120931F021092FE0110922002DC0150
:101C8000ED91FC910190F081E02D60E00995ED2C43
:101C9000FD2E11E0D1E080913E0290913F02CC23D5
:101CA00071F11032C8F00E94C70D80914202D093AA
:101CB000FD0180931F021092FE011092200280917C
:101CC0003E0290913F02DC01ED91FC910190F08188
:101CD000E02D60E0099511E080913E0290913F0275
:101CE000F7016491DC01ED91FC910190F081E02D10
:101CF00009951F5FC150BFEFEB1AFB0ACCCFDF91F4
:101D0000CF911F910F91FF90EF90DF900C94C70D32
:101D1000E0914E02F0914F029081809154028095A3
:101D2000892380830D2D1D2FCC2309F439C0F801A0
:101D3000849120913C0230913D02232B31F00E948E
:101D4000000DC1500F5F1F4FEFCF28E030E040E89B
:101D5000E0914A02F0914B0290915202582F542385
:101D600019F05081952B03C0508190959523908355
:101D7000E0914C02F0914D02508190915302952BCD
:101D80009083E0914C02F0914D025081909153026A
:101D9000909595239083469521503109C9F6D1CF6E
:101DA000DF91CF911F910F91FF90EF90DF900895F9
:101DB000EF92FF920F931F93CF93DF9380913E0298
:101DC00090913F02892BD1F0209156023091570219
:101DD000409158025091590260E074E284EF90E023
:101DE0000E944518DA01C9014097A109B109B695C9
:101DF000A795979587958093B80016C080913C026F
:101E000090913D02892B31F080915F0290916002A8
:101E10000E946A0DE0915002F091510290818091F0
:101E2000550280958923808365E088E795E00E94CC
:101E3000230E60912502615081E292E00E94070D1D
:101E40002091270230912802C901079697FD079635
:101E500033E0959587953A95E1F7209125023091E9
:101E60002602829F8001839F100D929F100D1124E6
:101E7000C0914002D091410280913E0290913F0278
:101E80000C0F1D1F009709F44CC02091420231E055
:101E90003093FD0120931F021092FE011092200248
:101EA000DC01ED91FC910190F081E02D60E4099559
:101EB000FF24F394EE24E39480913E0290913F023C
:101EC0000C171D0759F1BFE1BF15D0F40E94C70DD3
:101ED00080914202E092FD0180931F021092FE0168
:101EE0001092200280913E0290913F02DC01ED9120
:101EF000FC910190F081E02D60E40995FF24F394BA
:101F000080913E0290913F026991DC01ED91FC913C
:101F10000190F081E02D0995F394CECF0E94C70D7A
:101F200041C0E0914E02F0914F02908180915402A5
:101F3000892B80830C171D07A9F1899120913C0200
:101F400030913D02232B19F00E94000DF3CF28E0C1
:101F500030E040E8E0914A02F0914B029091520249
:101F6000582F542319F05081952B03C05081909520
:101F700095239083E0914C02F0914D025081909115
:101F80005302952B9083E0914C02F0914D025081C9
:101F90009091530290959523908346952150310955
:101FA000C9F6C8CF80913E0290913F02892BD1F0B3
:101FB00020915A0230915B0240915C0250915D0287
:101FC00060E074E284EF90E00E944518DA01C901F4
:101FD0004097A109B109B695A795979587958093E4
:101FE000B80017C0E0915002F091510290818091A9
:101FF0005502892B808380913C0290913D02892B70
:1020000041F0DF91CF911F910F91FF90EF900C94D1
:10201000FF0CDF91CF911F910F91FF90EF900895EA
:10202000009769F0FC0101900020E9F73197AF01BA
:10203000481B590BBC0181E292E00C94151480E01E
:1020400090E008952091270230912802C901079657
:1020500097FD079623E0959587952A95E1F72091BE
:10206000250230912602829FA001839F500D929FEE
:10207000500D112460E070E0809140029091410287
:102080000C9493193F924F925F926F927F928F922E
:102090009F92AF92BF92CF92DF92EF92FF920F93F7
:1020A0001F93CF93DF9300D000D000D0CDB7DEB721
:1020B0002C013B014A015901C901079697FD07967A
:1020C0009C0193E0359527959A95E1F73C832B8306
:1020D000C12CD12CE12CF12C312CC3018E0D9F1D74
:1020E0009A838983E016F106C4F51E821D822D8134
:1020F0003E812A153B054CF5C90187709927892B2C
:1021000011F0330C0EC0ED81FE81F7FD379683E0B0
:10211000F595E7958A95E1F7EC0DFD1DE80DF91DA4
:10212000349037FE0CC021E030E049815A816D8146
:102130007E81640D751D81E292E00E94ED088D8123
:102140009E8101969E838D83D2CF9FEFE91AF90A73
:102150002B813C81C20ED31EC0CF26960FB6F894B9
:10216000DEBF0FBECDBFDF91CF911F910F91FF90CA
:10217000EF90DF90CF90BF90AF909F908F907F9027
:102180006F905F904F903F9008952F923F924F92A3
:102190005F926F927F928F929F92AF92BF92CF92F7
:1021A000DF92EF92FF920F931F93CF93DF93CDB700
:1021B000DEB76B970FB6F894DEBF0FBECDBF9B8F17
:1021C0008A8F1B014A01D22E198708873701A982FD
:1021D000DC0159962D913C915A972115310509F052
:1021E000FFC018968D919C911997681779070CF08C
:1021F000E7C11A968D919C911B97481759070CF0CF
:10220000DFC1EC2DF0E0FB83EA839B0146E0C49E36
:10221000200D311D11243D872C87121613060CF05A
:10222000CFC16A2D70E07B876A8783E0660F771FD6
:102230008A95E1F77F876E87CB01880D991D181667
:1022400019060CF0BDC158968C91811104C08FEA1B
:102250008D1508F4D394AA8DBB8DED91FC91119747
:102260000284F385E02DCD010995B5E0DB9EC00128
:102270001124EC2DF0E0F98BE88B91012B5F3F4F9F
:102280003B8B2A8B3D822C822101AC0142195309E0
:102290005D8B4C8B7981672F70E07F8B6E8BC401D7
:1022A0000896998F888FEC89FD89E40DF51DE85813
:1022B000FF4FD49054019F828E82D0FE16C0AA8D0B
:1022C000BB8DED91FC91B1E0CB1209C02981213089
:1022D00031F40484F585E02D2885398519C00684FC
:1022E000F785E02DE884F9841DC048855985461599
:1022F000570519F1AA8DBB8DED91FC91B1E0CB1280
:102300000DC02981213051F40484F585E02D93011D
:10231000A501B2018A8D9B8D09950FC00684F785B2
:10232000E02D73010A851B852A813B814E815F81E7
:102330006C817D818A8D9B8D0995D6943FEFA31A80
:10234000B30A4E815F816E897F89460F571F5F8375
:102350004E83888D998DA816B90609F0AECF9FEFF0
:10236000491A590AAC81BD81E889F989AE0FBF1FAE
:10237000BD83AC832A893B894216530609F093CF6B
:10238000488559854615570509F4F8C0AA8DBB8DB7
:10239000ED91FC91B1E0CB1211C02981213071F493
:1023A000B1016B5F7F4F0088F189E02D830128E048
:1023B00030E0A4018A8D9B8D0995E0C06C857D85F8
:1023C0004A815B81641B750B0684F785E02D7301E0
:1023D0000E851F859A01A4018A8D9B8D0995CEC01B
:1023E000F9013496E491DE1AF901329685919491BF
:1023F000B7E0DB9E800D911D1124F90125913491E8
:102400003B8B2A8BFC01259134915901FC013296BA
:102410005490319634913C87329674903196149151
:1024200041E04C1518F05981523068F0672D072CA7
:10243000000C770B7D836C83812F012E000C990B90
:102440009B838A8304C01B821A821D821C82AA8DF0
:10245000BB8DED91FC9111970284F385E02DCD01A8
:102460000995412CD12C612CF981EF2FF0E0FF83ED
:10247000EE832C2D30E03B872A87A401410F511DAC
:1024800017FD5A955F8B4E8BB101670D711D77FC5F
:102490007A95798F688F7C85671608F06FC0262D36
:1024A00030E04A815B81420F531FAE81BF81A49F00
:1024B000C001A59F900DB49F900D1124F401E80F69
:1024C000F91FF98BE88B842D712C4E895F89420F9F
:1024D000531F5D8B4C8B751408F04DC051E0580FA5
:1024E0005E87877041F4C5010196EA89FB89EA0D90
:1024F000FB1DD4905C01D7FE3AC061E0C61216C045
:102500007981713099F4AA8DBB8DED91FC91119771
:102510000484F585E02D288539854C895D89688D91
:10252000798D670D711DCD01099521C08C819D812B
:10253000870D911DEA85FB858E9FB0018F9F700DE1
:102540009E9F700D1124620D731DAA8DBB8DED91A0
:10255000FC9111970684F785E02DE884F9840E81BB
:102560001F812A853B8548895989CD010995DD0C54
:1025700073948E85B0CF450C63948DCFAA8DBB8D9F
:10258000ED91FC9111970688F789E02DCD016B96AE
:102590000FB6F894DEBF0FBECDBFDF91CF911F9174
:1025A0000F91FF90EF90DF90CF90BF90AF909F90F2
:1025B0008F907F906F905F904F903F902F900994F5
:1025C0006B960FB6F894DEBF0FBECDBFDF91CF91F3
:1025D0001F910F91FF90EF90DF90CF90BF90AF9041
:1025E0009F908F907F906F905F904F903F902F9033
:1025F00008950F931F93CF93DF9377FF04C0260FA7
:10260000371F60E070E0DC011496CD91DC911597E6
:10261000FB01E20FF31FCE17DF071CF49E01261B00
:10262000370B121613060CF046C0FA0157FD379609
:10263000DF01E3E0B595A795EA95E1F7AC9FF001DE
:10264000AD9FF00DBC9FF00D11246E0F7F1FDC01BC
:102650005F96ED91FC919097E60FF71F4770552715
:1026600081E090E001C0880F4A95EAF7482F0130D9
:10267000110539F078F002301105E9F42E0F3F1FF3
:1026800013C02E0F3F1FE217F307A9F08081842BA0
:102690008193F9CF80952E0F3F1FE217F30759F072
:1026A000908198239193F9CFE217F30721F080816D
:1026B00084278193F9CFDF91CF911F910F910895D6
:1026C000EF92FF920F931F93CF93DF93EC0177FD6F
:1026D000A5C0EC80FD806E157F050CF09FC057FFF4
:1026E00004C0240F351F40E050E08E819F81FA0125
:1026F000E20FF31F8E179F071CF49C01241B350B60
:10270000121613060CF08AC0922F842F8695869598
:1027100086958E9DD0018F9DB00D11246A0F7B1F71
:10272000AF8DB8A1A60FB71F4770B1F188E0841B29
:10273000482F682F70E0FB01E059FF4FE491281704
:1027400098F4621B71092FEF30E002C03595279590
:102750006A95E2F7E2230130110549F078F0023082
:10276000110509F05BC00EC00130110519F48C9100
:10277000E82B0AC00130110508F049C0E0958C91A2
:10278000E82302C08C91E827EC93941708F446C024
:102790002C813D81A20FB31FE92FE41BE830F8F034
:1027A0000230110561F48E2F9C9190959C932C81A1
:1027B0003D81A20FB31F88508830B0F70FC081E071
:1027C0000115110509F480E081959E2F8C932C81D1
:1027D0003D81A20FB31F98509830C0F7E770EE23E9
:1027E000E9F0F0E0E859FF4FE4910130110539F0CC
:1027F00048F00230110591F48C91E82706C08C91C5
:10280000E82B03C0E0958C91E823EC9307C00230DD
:10281000110509F4B7CFAE0DBF1DBECFDF91CF912B
:102820001F910F91FF90EF900895CF92DF92EF925A
:10283000FF920F931F93CF93DF936C017A018B016B
:10284000C0E0D0E0CE15DF0581F0D8016D918D019B
:10285000D601ED91FC910190F081E02DC601099522
:10286000892B11F02196EECF7E01C701DF91CF9128
:102870001F910F91FF90EF90DF90CF9008958330DC
:1028800081F028F4813099F08230A1F008958730EA
:10289000A9F08830B9F08430D1F4809180008F7D28
:1028A00003C0809180008F7780938000089584B565
:1028B0008F7702C084B58F7D84BD08958091B0006C
:1028C0008F7703C08091B0008F7D8093B000089512
:1028D0001F93CF93DF93282F30E0F901EB58F54F8A
:1028E0008491F901EF59F54FD491F901E35BF54F6C
:1028F000C491CC23C1F0162F81110E943F14EC2FFC
:10290000F0E0EE0FFF1FE756FA4FA591B4919FB785
:10291000F894111104C08C91D095D82302C0EC9189
:10292000DE2BDC939FBFDF91CF911F9108950E9412
:102930008E198CE191E09093220280932102809184
:10294000400290914102009711F00C9405190895EE
:10295000A1E6B2E013961C921E92129748EE53E045
:1029600060E070E014964D935D936D937C931797A0
:102970008AE091E011969C938E93E1E2F2E013825B
:10298000128220E830E03583248380E290E0978350
:1029900086833187208793878287168A15861486D7
:1029A0001786168681E0858B848B2FEF3FEF338B64
:1029B000228B318B208B878B108E128E118E8CE1A7
:1029C00091E091838083148E138EB68FA58F10A211
:1029D000178E8FEF84A385A386A387A380A780E8A3
:1029E0009AE1A6E0B0E085AB96ABA7ABB0AF80EACA
:1029F00096E8A1E0B0E081AF92AFA3AFB4AF80E5BD
:102A000086AF17AE0895789484B5826084BD84B58E
:102A1000816084BD85B5826085BD85B5816085BDD9
:102A200080916E00816080936E0010928100809191
:102A30008100826080938100809181008160809319
:102A40008100809180008160809380008091B1003E
:102A500084608093B1008091B00081608093B00069
:102A600080917A00846080937A0080917A008260FD
:102A700080937A0080917A00816080937A008091BF
:102A80007A00806880937A001092C10062E082E050
:102A90000E94110B8091400290914102892B11F507
:102AA0002091270230912802C901079697FD0796C9
:102AB000B3E095958795BA95E1F72091250230917D
:102AC0002602AC01429FC001439F900D529F900D82
:102AD00011240E946D189093410280934002892B2B
:102AE00009F433C10E94221020912702309128025C
:102AF0008091250290912602213231050CF49FC16C
:102B0000B9016054710977FF02C06F5F7F4F7595FF
:102B100067958255910997FD019600E410E022E542
:102B200030E043E857E0959587950E9442108CE38A
:102B30008093430280913E0290913F02892B09F4D9
:102B400094C18091270290912802809709F48BC14B
:102B50008DE38093420210927202109271021092E1
:102B6000FE01109220021092FC0181E08093FB0193
:102B70001092D60161E082E10E94681461E083E175
:102B80000E9468148091B9008E7F8093B900809173
:102B9000B9008D7F8093B90088E48093B80085E404
:102BA0008093BC0088EC95E09093700280936F0254
:102BB00089EC95E090936E0280936D0280914902BA
:102BC00087FD1EC061E00E94110B61E08091490207
:102BD0000E94681461E070E080E090E00E944D0B7C
:102BE00060E0809149020E9468146AE070E080E031
:102BF00090E00E944D0B61E0809149020E946814B0
:102C000080913E0290913F02892B09F4EDC1209101
:102C1000560230915702409158025091590260E09B
:102C200074E284EF90E00E944518DA01C9014097F0
:102C3000A109B109B695A795979587958093B80096
:102C400064E085E995E00E94230E609127026150BF
:102C500081E292E00E94070D64E081E995E00E9424
:102C6000230E80914302813009F4D5C164E181E2F1
:102C700092E00E94070D64E08DE895E00E94230E2B
:102C80008FE880935E028091250290912602803821
:102C9000910509F0C4C180912702909128028034E7
:102CA000910509F0CEC180914302813009F4B5C18C
:102CB0008FEC80935E02C2E16AED81E292E00E94B5
:102CC000070D6C2F81E292E00E94070D61E881E21E
:102CD00092E00E94070D60915E0281E292E00E9404
:102CE000070D69ED81E292E00E94070D8091430299
:102CF000813009F4A8C161EF81E292E00E94070DE2
:102D000066E087E895E00E94230E80913E02909154
:102D10003F02892B09F499C120915A0230915B023C
:102D200040915C0250915D0260E074E284EF90E0BB
:102D30000E944518DA01C9014097A109B109B69569
:102D4000A795979587958093B8000E9422101092BE
:102D50002E0210922D021092300210922F0281E06A
:102D600090E09093340280933302909332028093E8
:102D7000310283E0809335028093360284E491E04F
:102D80000E9410100E94D80E60ED77E080E090E085
:102D90000E944D0B07E71AE093E6E92E9AE0F92E20
:102DA0002FE4C22E2AE0D22E9924939430E0A32E51
:102DB00030E0B32EC1E0D0E042E0842E0E94221029
:102DC00010922E0210922D021092300210922F02B9
:102DD000F8018491F7017490F6016490662009F47B
:102DE00047C181110E943F14E62DF0E0EE0FFF1F56
:102DF000ED5BF54FA591B4918C91782209F438C11F
:102E0000D0933402C0933302D0933202C093310284
:102E100080923502809236028AE491E00E9410107E
:102E20000E94D80E6AE070E080E090E00E944D0BB6
:102E3000A114B10409F4C2CF0E940000BFCFB901B0
:102E40006052710977FF02C06F5F7F4F759567957C
:102E50008357910997FD019600E210E023E730E0E7
:102E600043EA55E060CE8CE374CE61E08091470286
:102E70000E94110B61E0809148020E94110B809129
:102E80004702082E000C990BFC01E35BF54FE4911F
:102E9000F0E0EE0FFF1FE756FA4F25913491309383
:102EA0004F0220934E02FC01EF59F54FE491E0935D
:102EB000540280914802082E000C990BFC01E35B40
:102EC000F54FE491F0E0EE0FFF1FE756FA4FA591A2
:102ED000B491B0935102A0935002FC01EF59F54F09
:102EE000E491E09355028C91E82BEC9380913C02A5
:102EF00090913D02892B09F434C0CFB7F8948091AA
:102F00007302811127C0E7E5FAE08491EBE6FAE06D
:102F10009491E82FF0E0EE0FFF1FE358FA4FA591D0
:102F2000B491EC91E92321F461E08AE00E946814F5
:102F300061E08AE00E94110B8CB580618CBD8CB57C
:102F400080648CBD61E08DE00E94110B61E08BE03C
:102F50000E94110B809173028F5F80937302CFBF29
:102F60002DCE61E0809145020E94110B61E08091BD
:102F700046020E94110B80914502082E000C990B0D
:102F8000FC01E35BF54FE491F0E0EE0FFF1FE75625
:102F9000FA4F2591349130934B0220934A02FC0161
:102FA000EF59F54FE491E093520280914602082ECA
:102FB000000C990BFC01E35BF54FE491F0E0EE0FA0
:102FC000FF1FE756FA4FA591B491B0934D02A0931D
:102FD0004C02FC01EF59F54FE491E09353028C91C0
:102FE000E095E823EC93EACD80913C0290913D027C
:102FF000892B31F080915F02909160020E946A0DEE
:10300000E0915002F091510290818091550280959B
:103010008923808315CE60E12ACE8FE94ACE80369F
:10302000910579F48091270290912802409749F404
:1030300080914302813011F08FEA01C080E18093DA
:103040005E02C2E039CE62E257CEE0915002F091CA
:103050005102908180915502892B808380913C029E
:1030600090913D02892B09F470CE0E94FF0C6DCE29
:10307000909235029092360287E591E00E941010FE
:1030800086E691E00E941010BBCEA1E21A2EAA1B88
:10309000BB1BFD010DC0AA1FBB1FEE1FFF1FA21708
:1030A000B307E407F50720F0A21BB30BE40BF50B05
:1030B000661F771F881F991F1A9469F7609570958E
:1030C000809590959B01AC01BD01CF010895EE0F55
:1030D000FF1F0590F491E02D09940F931F93CF9358
:1030E000DF938230910510F482E090E0E091760267
:1030F000F091770220E030E0A0E0B0E0309719F1E5
:10310000408151810281138148175907C8F0841703
:10311000950769F4109731F012960C931297139655
:103120001C9327C0009376021093770222C02115CA
:10313000310519F04217530718F49A01BD01EF0148
:10314000DF01F801DBCF21153105F9F0281B390B20
:103150002430310580F48A819B816115710521F04D
:10316000FB019383828304C090937702809376025D
:10317000FE01329644C0FE01E20FF31F819391934A
:1031800022503109398328833AC02091740230914A
:103190007502232B41F420910201309103013093F9
:1031A00075022093740220910001309101012115D4
:1031B000310541F42DB73EB740910401509105010E
:1031C000241B350BE0917402F0917502E217F307AE
:1031D000A0F42E1B3F0B2817390778F0AC014E5F87
:1031E0005F4F2417350748F04E0F5F1F509375024D
:1031F000409374028193919302C0E0E0F0E0CF012C
:10320000DF91CF911F910F910895CF93DF93009796
:1032100009F481C0FC01329713821282A0917602D8
:10322000B0917702109781F420813181820F931F32
:1032300020917402309175022817390751F5F093E7
:103240007502E093740267C0ED0120E030E0CE1714
:10325000DF0740F44A815B819E0141155105F1F081
:10326000EA01F5CFD383C28340815181840F951F3A
:10327000C817D90759F488819981840F951F029640
:10328000918380838A819B81938382832115310579
:1032900029F4F0937702E09376023DC0E901FB83C5
:1032A000EA8349915991C40FD51FEC17FD0761F4CA
:1032B00080819181840F951F0296E901998388830B
:1032C000828193819B838A83E0E0F0E012968D9166
:1032D0009C911397009719F0FD01DC01F7CF8D91B8
:1032E0009C9111979D012E5F3F4F820F931F20915C
:1032F0007402309175022817390769F4309729F460
:10330000109277021092760202C013821282B0935A
:103310007502A0937402DF91CF91089581E090E04F
:10332000F8940C949A19DC0101C06D9341505040FF
:10333000E0F7089515E0C6E4D5E004C0FE010E9460
:0E33400067182196C734D107C9F7F894FFCF5C
:10334E00000078028000000000002306F605A709A1
:10335E00CA05EE05DA05CB0500000000390A151482
:10336E00A709A6095206CA05ED08C508E108D50841
:10337E00F408CA0510076D0DAA09EE090E08F1072B
:10338E0084072507204F70656E0064697374616E43
:10339E006365203A207800446F6E277420746F7531
:0A33AE006368206D65000D0A000041
:107E0000112484B714BE81FFF0D085E080938100F7
:107E100082E08093C00088E18093C10086E0809377
:107E2000C20080E18093C4008EE0C9D0259A86E02C
:107E300020E33CEF91E0309385002093840096BBD3
:107E4000B09BFECF1D9AA8958150A9F7CC24DD24C4
:107E500088248394B5E0AB2EA1E19A2EF3E0BF2EE7
:107E6000A2D0813461F49FD0082FAFD0023811F036
:107E7000013811F484E001C083E08DD089C08234E0
:107E800011F484E103C0853419F485E0A6D080C0E4
:107E9000853579F488D0E82EFF2485D0082F10E0AE
:107EA000102F00270E291F29000F111F8ED06801E7
:107EB0006FC0863521F484E090D080E0DECF843638
:107EC00009F040C070D06FD0082F6DD080E0C81688
:107ED00080E7D80618F4F601B7BEE895C0E0D1E017
:107EE00062D089930C17E1F7F0E0CF16F0E7DF06D8
:107EF00018F0F601B7BEE89568D007B600FCFDCFD4
:107F0000A601A0E0B1E02C9130E011968C91119780
:107F100090E0982F8827822B932B1296FA010C0160
:107F200087BEE89511244E5F5F4FF1E0A038BF0790
:107F300051F7F601A7BEE89507B600FCFDCF97BE46
:107F4000E89526C08437B1F42ED02DD0F82E2BD052
:107F50003CD0F601EF2C8F010F5F1F4F84911BD097
:107F6000EA94F801C1F70894C11CD11CFA94CF0C13
:107F7000D11C0EC0853739F428D08EE10CD085E9AC
:107F80000AD08FE07ACF813511F488E018D01DD067
:107F900080E101D065CF982F8091C00085FFFCCF94
:107FA0009093C60008958091C00087FFFCCF809118
:107FB000C00084FD01C0A8958091C6000895E0E648
:107FC000F0E098E1908380830895EDDF803219F02E
:107FD00088E0F5DFFFCF84E1DECF1F93182FE3DFCA
:107FE0001150E9F7F2DF1F91089580E0E8DFEE27F6
:047FF000FF270994CA
:027FFE00040479
:0400000300007E007B
:00000001FF
