:100000000C9463000C948B000C948B000C948B006C
:100010000C948B000C948B000C948B000C945F025E
:100020000C948B000C948B000C948B000C948B0024
:100030000C948B000C948B000C948B000C948B0014
:100040000C9439030C948B000C9407030C94E1027C
:100050000C948B000C948B000C948B000C948B00F4
:100060000C948B000C948B000000000024002700EF
:100070002A0000000008000201000003040700003D
:1000800000000000000000000000230026002900FE
:10009000010204081020408001020408102001021F
:1000A0000408102000000000250028002B00040494
:1000B0000404040404040202020202020303030310
:1000C00003030200FC0511241FBECFEFD8E0DEBF02
:1000D000CDBF11E0A0E0B1E0E2E1FFE002C0059099
:1000E0000D92A632B107D9F721E0A6E2B1E001C036
:1000F0001D92AD3DB207E1F710E0C3E6D0E004C0C9
:100100002197FE010E947C07C236D107C9F70E94E1
:10011000C8030C9487070C940000CF92DF92EF92F3
:10012000FF920F931F93CF93DF936C017A018B01A2
:10013000C0E0D0E0CE15DF0581F0D8016D918D01D2
:10014000D601ED91FC910190F081E02DC601099559
:10015000892B11F02196EECF7E01C701DF91CF915F
:100160001F910F91FF90EF90DF90CF900895089529
:1001700080E090E00895FC01538D448D252F30E000
:10018000842F90E0821B930B541710F0CF960895A4
:1001900001970895FC01918D828D981761F0828DF1
:1001A000DF01A80FB11D5D968C91928D9F5F9F73AB
:1001B000928F90E008958FEF9FEF0895FC01918D4D
:1001C000828D981731F0828DE80FF11D858D90E0BA
:1001D00008958FEF9FEF0895FC01918D228D892F57
:1001E00090E0805C9F4F821B91098F73992708953F
:1001F00080E491E00E94EC0021E0892B09F420E0EA
:10020000822F0895FC01848DDF01A80FB11DA35A30
:10021000BF4F2C91848D90E001968F739927848F26
:10022000A689B7892C93A089B1898C918370806449
:100230008C93938D848D981306C00288F389E02DEA
:1002400080818F7D80830895EF92FF920F931F939B
:10025000CF93DF93EC0181E0888F9B8D8C8D981379
:1002600005C0E889F989808185FD26C0F62E0B8DB1
:1002700010E00F5F1F4F0F731127E02E8C8DE812D7
:100280000CC00FB607FCFACFE889F989808185FF99
:10029000F5CFCE010E940201F1CF8B8DFE01E80F58
:1002A000F11DE35AFF4FF0829FB7F8940B8FEA8954
:1002B000FB89808180620AC09FB7F894EE89FF892C
:1002C0006083E889F98980818370806480839FBF1F
:1002D00081E090E0DF91CF911F910F91FF90EF901F
:1002E0000895CF93DF93EC01888D8823C9F0EA89C4
:1002F000FB89808185FD05C0A889B9898C9186FD1F
:100300000FC00FB607FCF5CF808185FFF2CFA8891B
:10031000B9898C9185FFEDCFCE010E940201E7CF14
:10032000DF91CF91089580E090E0892B29F00E9421
:10033000F80081110C940000089590E0FC01EE5843
:10034000FF4F2491FC01E057FF4F3491FC01E2552F
:10035000FF4FE491EE2309F43CC0222339F123300E
:1003600091F038F42130A9F0223001F584B58F7D69
:1003700012C0273091F02830A1F02430B9F48091D8
:1003800080008F7D03C0809180008F7780938000F4
:100390000DC084B58F7784BD09C08091B0008F7780
:1003A00003C08091B0008F7D8093B000F0E0EE0F2D
:1003B000FF1FEC55FF4FA591B4919FB7F8946111C1
:1003C00004C08C913095382302C0EC913E2B3C93B5
:1003D0009FBF0895CF93DF9390E0FC01E057FF4F5C
:1003E0002491FC01E255FF4F8491882361F190E054
:1003F000880F991FFC01E859FF4FC591D491FC016A
:10040000EC55FF4FA591B491611109C09FB7F894C5
:100410008881209582238883EC912E230BC0623043
:1004200061F49FB7F8948881322F309583238883B5
:10043000EC912E2B2C939FBF06C08FB7F894E881C8
:100440002E2B28838FBFDF91CF9108953FB7F8946B
:1004500080912B0190912C01A0912D01B0912E0142
:1004600026B5A89B05C02F3F19F00196A11DB11D0F
:100470003FBFBA2FA92F982F8827820F911DA11D4A
:10048000B11DBC01CD0142E0660F771F881F991F87
:100490004A95D1F70895009769F0FC01019000207A
:1004A000E9F73197AF01481B590BBC0180E491E09B
:1004B0000C948D0080E090E008950E9482071F92C6
:1004C0000F920FB60F9211242F933F934F935F9388
:1004D0006F937F938F939F93AF93BF93EF93FF930C
:1004E0008091340190913501A0913601B09137018E
:1004F000892B8A2B8B2B59F190912F01E0913001A0
:10050000F09131018081892780838091340190911D
:100510003501A0913601B0913701181619061A0657
:100520001B060CF03DC08091340190913501A091E3
:100530003601B09137010197A109B10980933401C7
:1005400090933501A0933601B093370129C0809173
:100550000001E2ECF0E0E4919FEF90930001E130C4
:10056000B9F098F0E230C9F4909170009D7F9093BB
:10057000700091E09093B0009091B100987F9460EA
:100580009093B1001092B30008C010926E0005C0A5
:1005900090916F009D7F90936F0060E00E949D019D
:1005A000FF91EF91BF91AF919F918F917F916F914B
:1005B0005F914F913F912F910F900FBE0F901F9021
:1005C00018951F920F920FB60F9211242F933F93FD
:1005D0004F935F936F937F938F939F93AF93BF934B
:1005E000EF93FF9380E491E00E940201FF91EF916D
:1005F000BF91AF919F918F917F916F915F914F913B
:100600003F912F910F900FBE0F901F9018951F9242
:100610000F920FB60F9211242F938F939F93EF9306
:10062000FF93E0915001F09151018081E0915601DA
:10063000F091570182FD12C09081809159018F5F26
:100640008F7320915A01821751F0E0915901F0E027
:10065000E05CFE4F958F8093590101C08081FF912E
:10066000EF919F918F912F910F900FBE0F901F9040
:1006700018951F920F920FB60F9211242F933F934C
:100680008F939F93AF93BF938091270190912801FF
:10069000A0912901B0912A013091260123E0230F76
:1006A0002D3720F40196A11DB11D05C026E8230FAA
:1006B0000296A11DB11D20932601809327019093DE
:1006C0002801A0932901B0932A0180912B019091D8
:1006D0002C01A0912D01B0912E010196A11DB11DFB
:1006E00080932B0190932C01A0932D01B0932E01A8
:1006F000BF91AF919F918F913F912F910F900FBE1E
:100700000F901F901895CF92DF92EF92FF920F9368
:100710001F93E82FF92F05C0015011092109310954
:1007200061F1908196239417B9F305C00150110926
:100730002109310911F1908196239413F7CFC12C2F
:10074000D12CE12CF12C0AC08FEFC81AD80AE80A84
:10075000F80A0C151D052E053F0579F080818623CA
:10076000841791F36C2D7D2D8E2D9F2D1F910F9150
:10077000FF90EF90DF90CF90089560E070E080E010
:1007800090E01F910F91FF90EF90DF90CF90089530
:10079000CF93DF93CDB7DEB7A1970FB6F894DEBF46
:1007A0000FBECDBF789484B5826084BD84B581606E
:1007B00084BD85B5826085BD85B5816085BD80912C
:1007C0006E00816080936E001092810080918100A4
:1007D000826080938100809181008160809381009C
:1007E000809180008160809380008091B10084605E
:1007F0008093B1008091B00081608093B0008091BF
:100800007A00846080937A0080917A00826080937D
:100810007A0080917A00816080937A0080917A00DA
:10082000806880937A001092C100E0915001F091AD
:10083000510182E08083E0914C01F0914D011082E2
:10084000E0914E01F0914F018FEC8083109258019E
:10085000E0915401F091550186E08083E0915201CE
:10086000F0915301808180618083E0915201F09189
:100870005301808188608083E0915201F09153019F
:10088000808180688083E0915201F09153018081E2
:100890008F7D808361E088E00E94EA015CE3C52EE1
:1008A000D12CE12CF12C68E9262E60E0362E61E097
:1008B0008DE00E94EA0160E08DE00E949D0183E0EE
:1008C00090E00197F1F761E08DE00E949D018FE0DB
:1008D00090E00197F1F760E08DE00E949D0160E0FB
:1008E0008CE00E94EA01ECE9F0E06491EAEBF0E0D0
:1008F0008491E82FF0E0EE0FFF1FEA57FF4F85913C
:10090000949100E412E42FE030E0462F0E9483032C
:10091000611571058105910549F0DC01CB01019656
:10092000A11DB11DBC01CD019F7003C060E070E04E
:10093000CB010E94610626E933E44BE05DE30E94AF
:10094000C50620E030E040E05FE30E94C5060E945B
:1009500029064B015C018B0183E191E00E944B026F
:10096000092C000CAA08BB08B7FE22C06DE280E487
:1009700091E00E94240122273327A901281939096F
:100980004A095B0919A2CE0181965C01CA01B9012D
:100990002AE030E040E050E00E945A07605DF50137
:1009A00062935F01211531054105510579F717C0A3
:1009B000A501940119A2CE0181965C01CA01B90179
:1009C0002AE030E040E050E00E945A07605DF50107
:1009D00062935F01211531054105510579F7C50184
:1009E0000E944B028FE191E00E944B0283E291E072
:1009F0000E944B020E9426022B013C0134E6832E0A
:100A0000912CA12CB12C0E942602DC01CB0184196F
:100A10009509A609B709883E9340A105B10598F349
:100A2000F1E08F1A9108A108B10828EE420E23E0E8
:100A3000521E611C711C81149104A104B10419F7A8
:100A40000B3011050CF0D5C080910001883021F0E9
:100A50008F3F09F0CEC004C0E2ECF0E0149174C006
:100A600088E080930001E2ECF0E014911F3F09F46C
:100A7000C0C0113009F446C048F1123009F064C01A
:100A80001092B0001092B1008091B000826080930B
:100A9000B0008091B10081608093B100E6EBF0E09E
:100AA0008491E82FF0E0EE0FFF1FEC55FF4F85918A
:100AB00094919093310180933001F101849180935E
:100AC0002F0161E088E00E94EA015DC014BC15BC02
:100AD00084B5826084BD85B5816085BDE6EBF0E0BC
:100AE0008491E82FF0E0EE0FFF1FEC55FF4F85914A
:100AF0009491F10184918093330161E088E00E9438
:100B0000EA012DC010928000109281008091810036
:100B10008860809381008091810081608093810052
:100B2000E6EBF0E08491E82FF0E0EE0FFF1FEC55CC
:100B3000FF4F85919491F10184918093320161E09E
:100B400088E00E94EA0129C017FD53C061E088E0F7
:100B50000E94EA01112319F01230E9F414C085B59E
:100B6000887F846085BD87E687BDC0923C01D092B6
:100B70003D01E0923E01F0923F0180916E00826063
:100B800080936E0036C08091B100887F856080932D
:100B9000B1008FEC1FC01130D1F480918100887FAB
:100BA00081608093810089E298E690938900809328
:100BB0008800C0923801D0923901E0923A01F09257
:100BC0003B0180916F00826080936F0012C01230F1
:100BD00081F489E28093B300C0923401D092350150
:100BE000E0923601F092370180917000826080932C
:100BF00070000E9493015BCEE0E4F1E01382128268
:100C000088EE93E0A0E0B0E084839583A683B78369
:100C100085E091E09183808385EC90E095878487DF
:100C200084EC90E09787868780EC90E0918B808BB6
:100C300081EC90E0938B828B82EC90E0958B848B9F
:100C400086EC90E0978B868B118E128E138E148E0D
:100C500008950E9430066894B1110C94BF0608955F
:100C60000E94A40688F09F5798F0B92F9927B75192
:100C7000B0F0E1F0660F771F881F991F1AF0BA9540
:100C8000C9F714C0B13091F00E94BE06B1E00895DA
:100C90000C94BE06672F782F8827B85F39F0B93FCC
:100CA000CCF3869577956795B395D9F73EF49095F3
:100CB0008095709561957F4F8F4F9F4F0895E89471
:100CC00009C097FB3EF490958095709561957F4F94
:100CD0008F4F9F4F9923A9F0F92F96E9BB27939542
:100CE000F695879577956795B795F111F8CFFAF452
:100CF000BB0F11F460FF1BC06F5F7F4F8F4F9F4F83
:100D000016C0882311F096E911C0772321F09EE8E0
:100D1000872F762F05C0662371F096E8862F70E046
:100D200060E02AF09A95660F771F881FDAF7880F20
:100D30009695879597F9089557FD9058440F551F3C
:100D400059F05F3F71F04795880F97FB991F61F04D
:100D50009F3F79F087950895121613061406551FC4
:100D6000F2CF4695F1DF08C0161617061806991F30
:100D7000F1CF86957105610508940895E894BB2725
:100D800066277727CB0197F908950E94D8060C941F
:100D900049070E943B0738F00E94420720F0952344
:100DA00011F00C9432070C94380711240C94BF06F0
:100DB0000E949C0670F3959FC1F3950F50E0551F5C
:100DC000629FF001729FBB27F00DB11D639FAA27A0
:100DD000F00DB11DAA1F649F6627B00DA11D661FEF
:100DE000829F2227B00DA11D621F739FB00DA11D10
:100DF000621F839FA00D611D221F749F3327A00DCA
:100E0000611D231F849F600D211D822F762F6A2F65
:100E100011249F5750409AF0F1F088234AF0EE0FCA
:100E2000FF1FBB1F661F771F881F91505040A9F7F7
:100E30009E3F510580F00C9432070C94BF065F3F33
:100E4000E4F3983ED4F3869577956795B795F79533
:100E5000E7959F5FC1F7FE2B880F911D96958795AB
:100E600097F9089597F99F6780E870E060E008952A
:100E70009FEF80EC089500240A94161617061806B2
:100E80000906089500240A9412161306140605068E
:100E90000895092E0394000C11F4882352F0BB0F1F
:100EA00040F4BF2B11F460FF04C06F5F7F4F8F4F82
:100EB0009F4F0895A1E21A2EAA1BBB1BFD010DC076
:100EC000AA1FBB1FEE1FFF1FA217B307E407F507FA
:100ED00020F0A21BB30BE40BF50B661F771F881FD6
:100EE000991F1A9469F760957095809590959B016C
:100EF000AC01BD01CF010895EE0FFF1F0590F491E5
:100F0000E02D099481E090E0F8940C948707F89420
:020F1000FFCF11
:100F1200FF0000000024018D00BB007101EC00CA3B
:100F220000DE0044697374616E6365203A2000201C
:060F3200636D000D0A00D2
:107E0000112484B714BE81FFF0D085E080938100F7
:107E100082E08093C00088E18093C10086E0809377
:107E2000C20080E18093C4008EE0C9D0259A86E02C
:107E300020E33CEF91E0309385002093840096BBD3
:107E4000B09BFECF1D9AA8958150A9F7CC24DD24C4
:107E500088248394B5E0AB2EA1E19A2EF3E0BF2EE7
:107E6000A2D0813461F49FD0082FAFD0023811F036
:107E7000013811F484E001C083E08DD089C08234E0
:107E800011F484E103C0853419F485E0A6D080C0E4
:107E9000853579F488D0E82EFF2485D0082F10E0AE
:107EA000102F00270E291F29000F111F8ED06801E7
:107EB0006FC0863521F484E090D080E0DECF843638
:107EC00009F040C070D06FD0082F6DD080E0C81688
:107ED00080E7D80618F4F601B7BEE895C0E0D1E017
:107EE00062D089930C17E1F7F0E0CF16F0E7DF06D8
:107EF00018F0F601B7BEE89568D007B600FCFDCFD4
:107F0000A601A0E0B1E02C9130E011968C91119780
:107F100090E0982F8827822B932B1296FA010C0160
:107F200087BEE89511244E5F5F4FF1E0A038BF0790
:107F300051F7F601A7BEE89507B600FCFDCF97BE46
:107F4000E89526C08437B1F42ED02DD0F82E2BD052
:107F50003CD0F601EF2C8F010F5F1F4F84911BD097
:107F6000EA94F801C1F70894C11CD11CFA94CF0C13
:107F7000D11C0EC0853739F428D08EE10CD085E9AC
:107F80000AD08FE07ACF813511F488E018D01DD067
:107F900080E101D065CF982F8091C00085FFFCCF94
:107FA0009093C60008958091C00087FFFCCF809118
:107FB000C00084FD01C0A8958091C6000895E0E648
:107FC000F0E098E1908380830895EDDF803219F02E
:107FD00088E0F5DFFFCF84E1DECF1F93182FE3DFCA
:107FE0001150E9F7F2DF1F91089580E0E8DFEE27F6
:047FF000FF270994CA
:027FFE00040479
:0400000300007E007B
:00000001FF
