:100000000C9447050C946F050C946F050C946F05C8
:100010000C946F050C946F050C946F050C944215AD
:100020000C946F050C946F050C946F050C946F0580
:100030000C946F050C946F050C946F050C946F0570
:100040000C941C160C946F050C94EA150C94C415B2
:100050000C946F050C946F050C946F050C946F0550
:100060000C9466160C946F0500000000003E5B4F78
:100070005B3E3E6B4F6B3E1C3E7C3E1C183C7E3C08
:10008000181C577D571C1C5E7F5E1C00183C180016
:10009000FFE7C3E7FF0018241800FFE7DBE7FF30A6
:1000A000483A060E2629792926407F050507407F14
:1000B00005253F5A3CE73C5A7F3E1C1C08081C1C87
:1000C0003E7F14227F22145F5F005F5F06097F017D
:1000D0007F006689956A606060606094A2FFA29468
:1000E00008047E040810207E201008082A1C080836
:1000F0001C2A08081E101010100C1E0C1E0C303884
:100100003E3830060E3E0E06000000000000005F84
:1001100000000007000700147F147F14242A7F2AA0
:100120001223130864623649562050000807030062
:10013000001C2241000041221C002A1C7F1C2A08AE
:10014000083E080800807030000808080808000011
:1001500060600020100804023E5149453E00427F85
:10016000400072494949462141494D331814127FD4
:100170001027454545393C4A494931412111090774
:100180003649494936464949291E000014000000F5
:1001900040340000000814224114141414140041C7
:1001A00022140802015909063E415D594E7C121184
:1001B000127C7F494949363E414141227F414141BC
:1001C0003E7F494949417F090909013E4141517337
:1001D0007F0808087F00417F41002040413F017FA8
:1001E000081422417F404040407F021C027F7F0470
:1001F00008107F3E4141413E7F090909063E4151B9
:10020000215E7F09192946264949493203017F01A8
:10021000033F4040403F1F2040201F3F4038403FA9
:10022000631408146303047804036159494D4300BF
:100230007F4141410204081020004141417F0402F6
:10024000010204404040404000030708002054548D
:1002500078407F284444383844444428384444286B
:100260007F385454541800087E090218A4A49C78BE
:100270007F0804047800447D40002040403D007F1A
:100280001028440000417F40007C047804787C08FA
:100290000404783844444438FC18242418182424CE
:1002A00018FC7C08040408485454542404043F44B3
:1002B000243C4040207C1C2040201C3C4030403CE2
:1002C00044281028444C9090907C4464544C440042
:1002D00008364100000077000000413608000201A6
:1002E0000204023C2623263C1EA1A161123A404092
:1002F000207A38545455592155557941225454780F
:1003000042215554784020545579400C1E527212A7
:100310003955555559395454545939555454580030
:1003200000457C410002457D420001457C407D1234
:1003300011127DF0282528F07C5455450020545496
:100340007C547C0A097F4932494949323A44444441
:100350003A324A4848303A4141217A3A424020787C
:10036000009DA0A07D3D4242423D3D4040403D3C7D
:1003700024FF2424487E4943662B2FFC2F2BFF09A2
:1003800029F620C0887E0903205454794100004496
:100390007D413048484A32384040227A007A0A0A81
:1003A000727D0D19317D2629292F282629292926F4
:1003B00030484D4020380808080808080808382F39
:1003C00010C8ACBA2F102834FA00007B00000814C3
:1003D0002A142222142A14085500550055AA55AA99
:1003E00055AAFF55FF55FF000000FF00101010FF39
:1003F00000141414FF001010FF00FF1010F010F094
:10040000141414FC001414F700FF0000FF00FF1484
:1004100014F404FC141417101F10101F101F1414D0
:10042000141F00101010F0000000001F101010101A
:100430001F10101010F010000000FF10101010100E
:1004400010101010FF10000000FF140000FF00FF4C
:1004500000001F10170000FC04F4141417101714E8
:1004600014F404F40000FF00F7141414141414140A
:10047000F700F7141414171410101F101F1414147D
:10048000F4141010F010F000001F101F0000001FE7
:1004900014000000FC140000F010F01010FF10FF1A
:1004A000141414FF141010101F00000000F010FFAF
:1004B000FFFFFFFFF0F0F0F0F0FFFFFF0000000093
:1004C00000FFFF0F0F0F0F0F3844443844FC4A4A17
:1004D0004A347E02020606027E027E0263554941CC
:1004E000633844443C04407E201E2006027E020203
:1004F00099A5E7A5991C2A492A1C4C7201724C3017
:100500004A4D4D303048784830BC625A463D3E49ED
:100510004949007E0101017E2A2A2A2A2A44445F91
:10052000444440514A444040444A51400000FF0185
:1005300003E080FF000008086B6B08361236243693
:10054000060F090F060000181800000010100030F8
:1005500040FF0101001F01011E00191D1712003C80
:100560003C3C3C0000000000000103070F1F3F7FE0
:100570000080C0E0F0F8FCFE00000008000201006E
:10058000000304070000000000000000000000005D
:10059000240027002A00DB40A4A62EAF2000A1C81B
:1005A000D300408DAED580A80000600000000000A0
:1005B000000000000000000000E00000000000005B
:1005C0000000000000000001E0000000000000004A
:1005D00000000000000001F000000000000000002A
:1005E000000000000003F000000000000000000018
:1005F0000000000007F00000000000000000000004
:1006000000000007F80000000000000000000000EB
:1006100000000FF800000003C0007E000001E000B1
:100620007F0FF800000003C000FE000001E000FFA3
:10063000EFF800000003C000FE000001E000FFFF33
:10064000F800000003C000F00000000F007FFE7FF4
:10065000C0000003C000F00000000F003FFE7FF864
:100660003FF1FBCFFCFEF3BC3DEFE01FFE7FFF7FC1
:10067000FBFFDFFEFEFFBC3DEFE01FC6FFFF7FFB81
:10068000FFDFFEFEFFBC3DEFE00FE3C7FE787BC35C
:10069000DE1EF0FFBC3DEF0007FF87FC787BC3DE6A
:1006A0001EF0F83C3DEF0001FFFFF0007BC3C01ED1
:1006B000F0F03C3DEF0001F37FE03FFBC3CFFEF0E5
:1006C000F03C3DEF0003E33F807FFBC3DFFEF0F033
:1006D0003C3DEF0007E73C00787BC3DE1EF0F03CBA
:1006E0003DEF0007FFBE00787BC3DE1EF0F03C3D0F
:1006F000EF0007FFFE00787BC3DE1EF0F03C3DEF0D
:10070000000FFFFE007FFBFFDFFEF0F03FFDEFE09C
:100710000FFFFF007FFBFFDFFEF0F03FFDEFE00F7C
:10072000F9FF003E79F9CF9EF0F01F3DE7E01FF1A1
:10073000FF0000000000000000000000001F80FF1C
:10074000007FFFFFFFFFFFFFFFFFFFE01C007F00B8
:100750007FFFFFFFFEB46D888D18E000001F007F53
:10076000FFFFFFFE95AD7DB577E000000F007FFF36
:10077000FFFFFEA5AD9D8D19E0000006007FFFFF85
:10078000FFFEB5ADEDB57EE0000000000001800089
:1007900000000000000000000380000000000000D6
:1007A00000000007C000000000000000000007C0BB
:1007B0000000000000000000000FC000000000006A
:1007C000000000001FE00000000000000000001F0B
:1007D000E00000000000000000003FE0000000001A
:1007E00000000000003FF0000000000000000000DA
:1007F0007FF0000000000000001FF87FF000000004
:10080000000000003FFE7FF0000000000000003FFD
:10081000FF7FF0000000000000001FFFFBE0000071
:1008200000000000000FFFF9FFC000000000000002
:100830000FFFF9FFF800000000000007FFF1FFFFC5
:1008400000000000000003FC73FFFF8000000000B8
:100850000001FE3FFFFF80000000000000FF1E0FB0
:10086000FF000000000000007FFE1FFC00000000F1
:100870000000003FFFFFF8000000000000000FDF55
:10088000FFE0000000000000001F19FFC000000092
:10089000000000003F3CFF00000000000000007E60
:1008A0007CF800000000000000007FFE7C000000DB
:1008B0000000000000FFFFFC00000000000000003E
:1008C000FFFFFE0000000000000000FFFFFE000030
:1008D000000000000001FFEFFE000000000000002B
:1008E00001FFCFFE0000000000000003FF07FE0034
:1008F00000000000000003FC07FE000000000000F4
:100900000003F003FE00000000000000018000FE74
:10091000000000000000000000007E000000000059
:1009200000000000003E0000000000000000000089
:100930000C000000000000078000FC000003C00065
:100940000000078001FC000003C0000000078001D8
:10095000FC000003C0000000078001E00000001E52
:10096000000000078001E00000001E007FE3F79F09
:10097000F9FDE7787BDFC0FFF7FFBFFDFDFF787B68
:10098000DFC0FFF7FFBFFDFDFF787BDFC0F0F7871B
:10099000BC3DE1FF787BDE00F0F787BC3DE1F078FD
:1009A0007BDE0000F787803DE1E0787BDE007FF7AB
:1009B000879FFDE1E0787BDE00FFF787BFFDE1E088
:1009C000787BDE00F0F787BC3DE1E0787BDE00F06D
:1009D000F787BC3DE1E0787BDE00F0F787BC3DE1C6
:1009E000E0787BDE00FFF7FFBFFDE1E07FFBDFC0CB
:1009F000FFF7FFBFFDE1E07FFBDFC07CF3F39F3D2E
:100A0000E1E03E7BCFC000000000000000000000DD
:100A100000FFFFFFFFFFFFFFFFFFFFC0FFFFFFFF24
:100A2000FD68DB111A31C0FFFFFFFFFD2B5AFB6A87
:100A3000EFC0FFFFFFFFFD4B5B3B1A33C0FFFFFF23
:100A4000FFFD6B5BDB6AFDC0000000002300260099
:100A5000290001020408102040800102040810202F
:100A600001020408102000000000250028002B00CF
:100A70000404040404040404020202020202030344
:100A800003030303022200FF2100CA17441D11249F
:100A90001FBECFEFD8E0DEBFCDBF11E0A0E0B1E0D8
:100AA000E4EDFFE302C005900D92A637B107D9F738
:100AB00023E0A6E7B1E001C01D92A034B207E1F740
:100AC00015E0C6E4D5E004C02197FE010E94A61EF1
:100AD000C534D107C9F70E9486180C94DD1F0C9409
:100AE0000000089508950895AF92BF92CF92DF92CB
:100AF000EF92FF920F931F93CF93DF936C017B01D3
:100B00008B01040F151FEB015E01AE18BF08C01763
:100B1000D10759F06991D601ED91FC910190F081D6
:100B2000E02DC6010995892B79F7C501DF91CF9199
:100B30001F910F91FF90EF90DF90CF90BF90AF90FB
:100B40000895FC01538D448D252F30E0842F90E0D3
:100B5000821B930B541710F0CF96089501970895B8
:100B6000FC01918D828D981761F0A28DAE0FBF2F81
:100B7000B11D5D968C91928D9F5F9F73928F90E0D7
:100B800008958FEF9FEF0895FC01918D828D981746
:100B900031F0828DE80FF11D858D90E008958FEF83
:100BA0009FEF0895FC01918D228D892F90E0805C4C
:100BB0009F4F821B91098F73992708958BE492E0D0
:100BC0000E94D20521E0892B09F420E0822F0895AC
:100BD00080E090E0892B29F00E94DE0581110C94C1
:100BE00000000895FC01A48DA80FB92FB11DA35AD0
:100BF000BF4F2C91848D90E001968F739927848F3D
:100C0000A689B7892C93A089B1898C91837080645F
:100C10008C93938D848D981306C00288F389E02D00
:100C200080818F7D80830895EF92FF920F931F93B1
:100C3000CF93DF93EC0181E0888F9B8D8C8D98138F
:100C40001AC0E889F989808185FF15C09FB7F8949B
:100C5000EE89FF896083E889F989808183708064E7
:100C600080839FBF81E090E0DF91CF911F910F9132
:100C7000FF90EF900895F62E0B8D10E00F5F1F4F41
:100C80000F731127E02E8C8D8E110CC00FB607FC50
:100C9000FACFE889F989808185FFF5CFCE010E94DE
:100CA000F205F1CFEB8DEC0FFD2FF11DE35AFF4F55
:100CB000F0829FB7F8940B8FEA89FB89808180626C
:100CC000CFCFCF93DF93EC01888D8823B9F0AA8929
:100CD000BB89E889F9898C9185FD03C0808186FDF7
:100CE0000DC00FB607FCF7CF8C9185FFF2CF808146
:100CF00085FFEDCFCE010E94F205E9CFDF91CF91C4
:100D0000089590E0FC01E858FA4F2491FC01EE5A56
:100D1000F54F3491FC01E059F54FE491EE23C9F011
:100D2000222339F0233001F1A8F4213019F12230C7
:100D300029F1F0E0EE0FFF1FEA59F54FA591B491AC
:100D40008FB7F894EC91611126C030953E233C9307
:100D50008FBF08952730A9F02830C9F0243049F713
:100D6000809180008F7D03C0809180008F77809379
:100D70008000DFCF84B58F7784BDDBCF84B58F7DD6
:100D8000FBCF8091B0008F778093B000D2CF80915D
:100D9000B0008F7DF9CF3E2BDACFCF93DF9390E079
:100DA000FC01EE5AF54F24918059954FFC01849136
:100DB0008823D1F090E0880F991FFC01E457FA4F87
:100DC000A591B491FC01EA59F54FC591D4916111F7
:100DD0000EC09FB7F8948C91E22FE0958E238C93F0
:100DE0002881E223E8839FBFDF91CF9108958FB7D9
:100DF000F894EC91E22BEC938FBFF6CF1F93CF9337
:100E0000DF93182FEB0161E00E94CD06209739F4A3
:100E100060E0812FDF91CF911F910C948106CF3F2D
:100E2000D10511F461E0F5CFE12FF0E0E858FA4F79
:100E3000E491E33031F140F4E130B1F0E230E1F03F
:100E4000C038D1057CF7E4CFE73029F1E83059F11B
:100E5000E430B1F780918000806280938000D0936D
:100E60008B00C0938A0004C084B5806884BDC7BD70
:100E7000DF91CF911F91089584B5806284BDC8BD74
:100E8000F7CF80918000806880938000D0938900A4
:100E9000C0938800EDCF8091B00080688093B0004F
:100EA000C093B300E5CF8091B00080628093B00022
:100EB000C093B400DDCF3FB7F89480912B0290919E
:100EC0002C02A0912D02B0912E0226B5A89B05C040
:100ED0002F3F19F00196A11DB11D3FBFBA2FA92FB9
:100EE000982F8827BC01CD01620F711D811D911DB6
:100EF00042E0660F771F881F991F4A95D1F7089522
:100F00008F929F92AF92BF92CF92DF92EF92FF9219
:100F10004B015C010E945B076B017C010E945B0737
:100F20006C197D098E099F09683E73408105910502
:100F3000A8F321E0821A9108A108B10888EEC80E32
:100F400083E0D81EE11CF11C81149104A104B104BA
:100F500029F7FF90EF90DF90CF90BF90AF909F90D8
:100F60008F900895CF93DF93EC018881998100974A
:100F700029F0019761F0DF91CF9108958A810E9455
:100F8000FE0660E08B81DF91CF910C9481068A810F
:100F90000E94FE0670E060E08B81DF91CF910C949F
:100FA000FE06EF92FF920F931F93CF93DF93EC0116
:100FB000EC80FD806E157F050CF070C057FF04C0FB
:100FC000240F351F50E040E08E819F81FA01E20F2F
:100FD000F31F8E179F071CF49C01241B350B121660
:100FE00013060CF05BC0922F842F8695869586950C
:100FF0008E9DD0018F9DB00D11246A0F7B1FAF8D88
:10100000B8A1A60FB71F477049F188E0841B482F8D
:10101000682F70E0FB01E059FA4FE491281708F0BF
:1010200063C0621B71092FEF30E002C03595279530
:101030006A95E2F7E2230130110539F0B0F1023090
:10104000110561F58C91E82702C08C91E82BEC9397
:10105000941720F12C813D81A20FB31FE92FE41BCF
:10106000E83078F00230110521F58E2F9C91909593
:101070009C932C813D81A20FB31F88508830B0F71C
:10108000E770EE2359F0F0E0E859FA4FE4910130AF
:101090001105F9F010F10230110519F1DF91CF912E
:1010A0001F910F91FF90EF900895E0958C91E823A8
:1010B000CECF81E00115110509F480E081959E2FC6
:1010C0008C932C813D81A20FB31F98509830C0F7AC
:1010D000D7CF8C91E82BEC93E1CFE0958C91E8236E
:1010E000FACF8C91E827F7CF0130110509F4ADCF85
:1010F000E0F20230110509F4A5CFAE0DBF1DAECF51
:101100000F931F93CF93DF9377FF04C0260F371FF2
:1011100070E060E0DC011496CD91DC91FB01E20F00
:10112000F31FCE17DF071CF49E01261B370B121688
:1011300013064CF5FA0157FD3796A3E0F595E795B0
:10114000AA95E1F7EC9FD001ED9FB00DFC9FB00D8B
:1011500011246A0F7B1FDC015F96ED91FC91E60F75
:10116000F71F4770552781E090E001C0880F4A952E
:10117000EAF7482F0130110559F0A8F02E0F3F1F54
:1011800002301105E1F0DF91CF911F910F91089589
:101190002E0F3F1FE217F307B1F38191DF01119783
:1011A000842B8C93F7CF80952E0F3F1FE217F30708
:1011B00051F39191DF01119798239C93F7CFE21798
:1011C000F30709F38191DF01119784278C93F7CFFF
:1011D0000F931F93FA01DC0156964C9156974230BB
:1011E000E9F04330A1F1413061F514964D915C91E5
:1011F000DA01AE1BBF0BFD01E21BF30B77FD0BC049
:10120000DC0116964D915C916417750724F4AB01CF
:10121000BF010E9480081F910F91089514964D916F
:101220005C91DA01A61BB70BBD0161507109DC01AD
:1012300016964D915C91DA01AE1BBF0BFD01E21BCE
:10124000F30B77FDE8CFAF010E94D107E4CF1696EC
:101250004D915C91DA01A61BB70BBD01615071097C
:10126000CDCF0F931F93FA01DC0156964C91569700
:101270004230A9F0433091F1413019F514964D9167
:101280005C91DA01AE1BBF0BFD013197F7FD04C085
:10129000AB01BF010E94D1071F910F9108951496D1
:1012A0004D915C91DA01A61BB70BBD01DC011696CE
:1012B0004D915C91DA01AE1BBF0BFD013197621BB2
:1012C000730BF7FDE9CFDC0116964D915C91E417A5
:1012D000F50714F7AF010E948008DECF16964D91F6
:1012E0005C91DA01A61BB70BBD01621B730BCECF5D
:1012F000FC0177FD64C080859185681779070CF043
:101300005EC057FD5CC082859385481759070CF075
:1013100056C086898230B1F0833029F1813041F4A2
:1013200084819581841B950BAB01BC0161507109CF
:101330002130310509F108F443C02230310509F4A8
:1013400063C0089584819581DC01A61BB70BBD01A4
:101350006150710986819781DC01A41BB50BAD0139
:1013600041505109E5CF86819781861B970BBA01C1
:10137000AC0141505109DCCFCA0157FD0796A3E0EB
:1013800095958795AA95E1F7A481B5818A9F9001EB
:101390008B9F300D9A9F300D1124620F731F078CA5
:1013A000F0A1E02DE60FF71F4770552721E030E050
:1013B00001C0220F4A95EAF78081822B808308952D
:1013C000CA0157FD079633E0959587953A95E1F761
:1013D000A481B5818A9F90018B9F300D9A9F300D1B
:1013E0001124620F731F078CF0A1E02DE60FF71F89
:1013F0004770552781E090E001C0880F4A95EAF7D1
:10140000809590818923DACFCA0157FD079623E0A2
:10141000959587952A95E1F7A481B5818A9F9001DA
:101420008B9F300D9A9F300D1124620F731F078C14
:10143000F0A1E02DE60FF71F4770552721E030E0BF
:1014400001C0220F4A95EAF780818227B7CF08951D
:101450008EBD00000DB407FEFDCF8EB508958CBD86
:101460009DBD08950895FC016370668B848195810C
:1014700026813781613039F0633029F09187808788
:10148000338722870895318720879387828708953D
:101490002F923F924F925F926F927F928F929F9284
:1014A000AF92BF92CF92DF92EF92FF920F931F9372
:1014B000CF93DF93CDB7DEB76A970FB6F894DEBF50
:1014C0000FBECDBF9A8F898F7A8369834A01D22E4E
:1014D00018870F833701BC2CDC0159962D913C9164
:1014E0005A972115310509F015C118968D919C91D7
:1014F0001997681779070CF0D7C11A968D919C91AE
:10150000481759070CF0D0C14C2C512CB6E0CB9E9B
:10151000600D711D11247C876B87161617060CF061
:10152000C3C1EA2DF0E0FA87E98793E0EE0FFF1FD1
:101530009A95E1F7F88BEF87CF01840F951F181666
:1015400019060CF0B1C1A98DBA8D58968C918111F4
:1015500004C0BFEABD1508F4D394A98DBA8DED91EE
:10156000FC9111970284F385E02DCD010995B5E03A
:10157000DB9EC0011124E981FA81FC83EB83312CCD
:10158000212C9C0128593F4F388F2F8B4A2D50E03A
:101590005E8B4D8BEF89F88DE20DF31D44919E8299
:1015A0008D82D12CC12C69817A81620D731D7A8B59
:1015B000698B842F90E09C8B8B8BE98DFA8DA081B9
:1015C000B18140FF82C0F1E0BF126FC0AF126DC0A9
:1015D0001C96ED91FC912F813885A4014C0D5D1D69
:1015E00069897A89898D9A8D0995EB89FC89F595A8
:1015F000E7954E2F5FEFC51AD50A6D817E818D89E3
:101600009E89680F791F7E836D8398E0C916D10487
:1016100081F6AFEF2A1A3A0AEB81FC81E40DF51D41
:10162000FC83EB83F5E02F16310409F0B3CF2F8153
:10163000388526153705B9F0A98DBA8DED91FC9145
:10164000B1E0BB1257C0AB1255C069817A816B5FA4
:101650007F4F0088F189E02D830128E030E0A4016C
:10166000898D9A8D0995A98DBA8DED91FC9111976F
:101670000688F789E02DCD016A960FB6F894DEBF93
:101680000FBECDBFDF91CF911F910F91FF90EF90D3
:10169000DF90CF90BF90AF909F908F907F906F9092
:1016A0005F904F903F902F9009941E96ED91FC9182
:1016B000EF80F88409851A8592014D815E816B81E6
:1016C0007C81898D9A8D099590CF2F81388526153B
:1016D000370509F48ACF31E0B31207C0A31205C061
:1016E0001C96ED91FC91930178CF1E96ED91FC91A3
:1016F0007301E0CF6B857C85641975090684F785D5
:10170000E02D73010F8518899201A401898D9A8DAE
:101710000995A9CFF9013496949132974591549146
:10172000D91AB7E0DB9E400D511D1124F901259116
:1017300034913C8B2B8BFA0125903490FA01329630
:10174000749031963491398B3296649031964490EE
:1017500041E04C1518F04A1508F07FC0662D062CA4
:10176000000C770B7C836B83842D042C000C990B6D
:101770009E838D83A98DBA8DED91FC911197028482
:10178000F385E02DCD010995512CD12CC12CEA2DEA
:10179000F0E0FA87E9872B2D30E03C872B87A40106
:1017A000440D511D47FC5A95588F4F8B69817A81A2
:1017B000660D711D67FC7A957E876D877989C716DE
:1017C00008F051CF2C2D30E04D815E81420F531F28
:1017D000A985BA854A9FC0014B9F900D5A9F900DD5
:1017E0001124FC01E80DF91DF88BEF87852D612C84
:1017F0004F89588D420F531F5E8B4D8B671408F035
:1018000050C044244394480E877041F4C1010196AE
:10181000EB89FC89E20DF31DD4901C01D7FE19C0A1
:10182000A98DBA8DED91FC91662D70E0B1E0BB12EF
:1018300019C0AB1217C02D853E85620F731F04843B
:10184000F585E02D2F8138854D895E89898D9A8DAA
:101850000995DD0C6394842DD1CF1E821D821C82DC
:101860001B8288CF4B815C81640F751FAB85BC8563
:101870006A9FC0016B9F900D7A9F900D1124698122
:101880007A81680F791F0684F785E02DEF80F88450
:1018900009851A859D014F855889898D9A8D0995ED
:1018A000D8CF570CC3948ACF6A960FB6F894DEBF90
:1018B0000FBECDBFDF91CF911F910F91FF90EF90A1
:1018C000DF90CF90BF90AF909F908F907F906F9060
:1018D0005F904F903F902F9008958F929F92AF927C
:1018E000CF92EF92FF920F931F93CF93DF93EC0170
:1018F000262F898D9A8D009709F051C06A30D1F456
:101900001D861C868D8948E0849F900111248E8558
:101910009F85820F931F9F878E8781E090E0DF91E4
:10192000CF911F910F91FF90EF90CF90AF909F902C
:101930008F9008956D3089F3CC88AD888F89882386
:10194000C1F08C859D8536E0C39E800D911D1124CC
:10195000488559854817590764F44E855F851D866B
:101960001C8638E0A39EC0011124840F951F9F8719
:101970008E87EA88FB88088919894E855F856C8582
:101980007D85CE010E94480A2C898C859D8546E084
:10199000249F800D911D11249D878C87BECF6A30B6
:1019A00069F41D861C86FC013896E4912D898E858C
:1019B0009F85E29F800D911D1124ADCF6D3009F4FC
:1019C000ACCFFC0134963491631708F4A6CF32965D
:1019D000E491E61708F4A1CFFC013296859094902B
:1019E000462F431B342F47E0349F800C911C112459
:1019F000F401329634913196E4913323A9F1EE2328
:101A000099F1CC88F4013596E491AD884F8944234F
:101A100001F10E2E000CFF0BE30FF11DCE9EA00175
:101A2000CF9E500D11246C857D85460F571F68850C
:101A30007985641775076CF44E855F851D861C8655
:101A4000FC013896E491AE9E400D511D11245F8734
:101A50004E87EA88FB88088919894E855F856C85E1
:101A60007D85CE010E94480AF4013496E4912C89C8
:101A70008C859D85E29F800D911D11248DCF6F92E5
:101A80007F928F929F92AF92BF92CF92DF92EF920E
:101A9000FF920F931F93CF93DF93EC016B015A01D9
:101AA00039014801E881F9810284F385E02D099527
:101AB000E881F9810288F389E02D87019301A5016E
:101AC000B601CE010995A501480D591D4150510996
:101AD000E881F9810288F389E02D9301B601CE01F6
:101AE0000995E881F9810088F189E02D9401A5012B
:101AF000B601CE010995C60CD71CB601615071091B
:101B0000E881F9810088F189E02D9401A501CE01D9
:101B10000995E881F9810688F789E02DCE01DF91EA
:101B2000CF911F910F91FF90EF90DF90CF90BF90DA
:101B3000AF909F908F907F906F9009946F927F925B
:101B40008F929F92AF92BF92CF92DF92EF92FF92CD
:101B50000F931F93CF93DF935C01EB016A0149015F
:101B600038018701DC01ED91FC916217730719F5CB
:101B7000641675062CF0962D872D3A01C92ED82EA5
:101B80009601261937092F5F3F4F048CF58DE02D04
:101B9000A301BE01C5010995DF91CF911F910F915E
:101BA000FF90EF90DF90CF90BF90AF909F908F907D
:101BB0007F906F9008954615570591F426173707C3
:101BC00024F0892D4B01C22FD82F9E0128193909E5
:101BD0002F5F3F4F068CF78DE02DA601B401DACFC1
:101BE0000284F385E02D0995D501ED91FC910488DF
:101BF000F589E02D83019401A601BE01C501099577
:101C0000D501ED91FC910688F789E02DC501DF91A2
:101C1000CF911F910F91FF90EF90DF90CF90BF90E9
:101C2000AF909F908F907F906F900994EF92FF926A
:101C30000F931F93DC011A960D911C911B97189618
:101C40002D913C911997ED91FC9100A0F1A1E02D0F
:101C50007B0150E040E070E060E009951F910F913A
:101C6000FF90EF9008954F925F926F927F928F92C4
:101C70009F92AF92BF92CF92DF92EF92FF920F931B
:101C80001F93CF93DF936C012B015A013901480157
:101C9000DC01ED91FC910284F385E02D0995E201D0
:101CA000640C751CD601ED91FC91C615D7055CF44A
:101CB0000088F189E02D87019401A501BE01C601CC
:101CC00009952196EFCF0688F789E02DC601DF91AF
:101CD000CF911F910F91FF90EF90DF90CF90BF9029
:101CE000AF909F908F907F906F905F904F900994EE
:101CF0008F929F92AF92BF92CF92DF92EF92FF921C
:101D00000F931F93CF93DF93EC015B014A016901AD
:101D1000E881F9810284F385E02D099595012C0D68
:101D20003D1D21503109E881F9810488F589E02DB4
:101D300078018401A401B501CE010995E881F981FA
:101D40000688F789E02DCE01DF91CF911F910F9189
:101D5000FF90EF90DF90CF90BF90AF909F908F90CB
:101D600009948F929F92AF92BF92CF92DF92EF929F
:101D7000FF920F931F93CF93DF93EC015B014A0116
:101D800069017801E881F9810284F385E02D0995E4
:101D9000C80CD91C860101501109E881F981048819
:101DA000F589E02D9501A401B501CE010995E881E1
:101DB000F9810688F789E02DCE01DF91CF911F913F
:101DC0000F91FF90EF90DF90CF90BF90AF909F90DA
:101DD0008F900994EF92FF920F931F93DC01ED9186
:101DE000FC9100A0F1A1E02D09951F910F91FF90AA
:101DF000EF9008950F931F93DC01ED91FC91068CF9
:101E0000F78DE02D09951F910F9108950F931F9362
:101E1000DC01ED91FC91048CF58DE02D09951F916D
:101E20000F910895DC01ED91FC910084F185E02D86
:101E300009943F924F925F926F927F928F929F92FE
:101E4000AF92BF92CF92DF92EF92FF920F931F93C8
:101E5000CF93DF935C017B014A016901390187E07F
:101E6000680E711C93E0759467949A95E1F72B01C5
:101E7000400E511E10E000E0312CD0E0C0E0CE0159
:101E800087709927330C892B59F4FE0183E0F5956F
:101E9000E7958A95E1F7E00FF11FE80DF91D349001
:101EA00037FE0AC021E030E0A701B5016C0F7D1FAD
:101EB0008CEF92E00E94120F2196CC16DD06F9F607
:101EC0008FEFE81AF80A060D171DE414F504A9F6B9
:101ED000DF91CF911F910F91FF90EF90DF90CF9006
:101EE000BF90AF909F908F907F906F905F904F903A
:101EF0003F9008952F923F924F925F926F927F9200
:101F00008F929F92AF92BF92CF92DF92EF92FF9209
:101F10000F931F93CF93DF9300D000D000D0CDB7A5
:101F2000DEB73C016A013E832D83FC82EB825801BF
:101F3000A41AB50AB7FE03C0B194A194B1088D806C
:101F40009E80861A970A97FE03C091948194910807
:101F50008A149B045CF0902F812F0D811E819D833C
:101F60008E839C2D8D2D6B01692F782F0C151D05EF
:101F70005CF09D818E817E836D83692F782F902FF9
:101F8000812F8601C92ED82E1601201A310A2B0165
:101F90002D813E81421A530A57FE03C05194419449
:101FA0005108710137FE03C03FEFE31AF30AF594BD
:101FB000E7948D819E81861797075CF5A1E0B0E0DC
:101FC000BA83A983C016D1064CF1D301ED91FC91DF
:101FD0000484F585E02D2B813C81A8016D817E81F3
:101FE0008A149B041CF04D815E81B801C3010995E0
:101FF000E418F508F7FE0AC02D813E8189819A8197
:10200000280F391F3E832D83E20CF31C0F5F1F4FF7
:10201000D9CF2FEF3FEF3A832983D4CF26960FB63F
:10202000F894DEBF0FBECDBFDF91CF911F910F910E
:10203000FF90EF90DF90CF90BF90AF909F908F90E8
:102040007F906F905F904F903F902F9008950895EC
:102050002091DC01260F3327331F21323105ECF4A8
:1020600020910002FC0190E080E0243069F082E0E1
:102070000895A091DC012191AC0144545E4FA40F5E
:10208000B52FB11D2C930196861798F38091DC0132
:10209000680F6093DC0180E0089581E0089510925C
:1020A000000281E0809302021092010261E082E16D
:1020B0000E94810661E083E10E948106E9EBF0E085
:1020C00080818E7F808380818D7F808388E4809370
:1020D000B80085E48093BC000895CF93DF9391E02E
:1020E0009093BB018823B9F0C091B800D091BA0099
:1020F0008091BC008A7B8093BC0060E082E10E94FA
:10210000810660E083E10E9481060E944F10D09317
:10211000BA00C093B800DF91CF910895E0913502E5
:1021200080913402E81730F4F0E0EA56FE4F8081E7
:1021300090E008958FEF9FEF089590913502809180
:1021400034022FEF3FEF981748F4E92FF0E0EA56FA
:10215000FE4F208130E09F5F90933502C9010895C2
:102160008091340290913502891B990B0895CF928A
:10217000DF92EF92FF920F931F93CF93DF937C0137
:10218000CB018A0120914A02222389F0EB016B01E5
:10219000C40ED51ECC15DD0569F06991D701ED910E
:1021A000FC910190F081E02DC7010995F3CF642FD8
:1021B0000E942810C801DF91CF911F910F91FF90CD
:1021C000EF90DF90CF900895CF93DF931F92CDB71C
:1021D000DEB7698320914A022223F9F02091470259
:1021E000203258F021E030E0FC013383228390E07C
:1021F00080E00F90DF91CF91089580914802E82F01
:10220000F0E0EA58FE4F998190838F5F80934802F7
:102210008093470281E090E0ECCF61E0CE0101962F
:102220000E942810F7CFCF92DF92EF92FF920F9388
:102230001F93CF93DF93D091470281E0D13208F012
:102240009CC0C09149020E945B076B017C01809198
:10225000000281116CC082E08093000281E08093D3
:1022600002028FEF8093FF0110922402D093230289
:10227000A6E7B1E0E3E0F2E080E0D8138DC0109271
:10228000250280912502CC0FC82BC0932502809196
:102290000102813009F084C0109201020E945B07A4
:1022A0006B017C01809125028093BB008091B70176
:1022B0009091B801A091B901B091BA01892B8A2BF4
:1022C0008B2BA1F00E945B070091B7011091B80120
:1022D0002091B9013091BA016C197D098E099F09CD
:1022E000061717072807390708F442C08091BC0079
:1022F00083FDD8CF85EC8093BC000E945B076B0107
:102300007C0180910002823009F44CC08091FF0171
:102310008F3F09F469C08091FF01803209F466C0E3
:102320008091FF01803309F463C084E026C080916E
:10233000B7019091B801A091B901B091BA01892B70
:102340008A2B8B2B09F483CF0E945B070091B70186
:102350001091B8012091B9013091BA016C197D0931
:102360008E099F09061717072807390708F06FCF4E
:102370008091B6010E946D1085E010924802109283
:10238000470210924A02DF91CF911F910F91FF9067
:10239000EF90DF90CF9008959D9191938F5F6DCFD7
:1023A00085EEA9CF8091B7019091B801A091B901B4
:1023B000B091BA01892B8A2B8B2B09F4A2CF0E94F2
:1023C0005B070091B7011091B8012091B9013091DC
:1023D000BA016C197D098E099F090617170728078E
:1023E000390708F08ECFC4CF80E0C7CF82E0C5CFD9
:1023F00083E0C3CFFF920F931F93CF93DF93F82E09
:10240000D92FC62F8091190390911A03009709F4D0
:1024100052C020911D0331E030934A0220934902BB
:102420001092480210924702DC01ED91FC9101905C
:10243000F081E02D60E009950F2D1D2FD1E0FF24E4
:10244000F394C1508091190390911A03CF3F61F129
:10245000D032C8F00E9413118091190390911A0391
:1024600020911D03F0924A022093490210924802E3
:1024700010924702DC01ED91FC910190F081E02D7A
:1024800060E00995D1E08091190390911A03F80159
:102490006491DC01ED91FC910190F081E02D0995B2
:1024A000DF5F0F5F1F4FCDCFDF91CF911F910F9156
:1024B000FF900C941311E0912903F0912A0390816D
:1024C00080912F038095892380830F2D1D2FC1506C
:1024D00008F438C0F8018491209117033091180353
:1024E000232B29F00E94280A0F5F1F4FF0CF28E00E
:1024F00030E040E8E0912503F091260390912D0310
:10250000582F5423D9F05081952B9083E0912703C5
:10251000F0912803908150912E03952B9083E091A8
:102520002703F0912803508190912E0390959523D5
:102530009083469521503109E9F6D6CF5081909588
:102540009523E3CFDF91CF911F910F91FF900895D5
:102550001F93CF93DF93EC018D8D9E8D009721F11A
:10256000162F29A131E030934A022093490210929C
:10257000480210924702DC01ED91FC910190F0813C
:10258000E02D60E009958D8D9E8DDC01ED91FC9133
:102590000190F081E02D612F09958D8D9E8DDF9149
:1025A000CF911F910C941311ADA5BEA59C918BA941
:1025B000809589238C938B8D9C8D892B31F0862F70
:1025C000DF91CF911F910C94280A28E030E080E839
:1025D000A9A5BAA599A9462F4823C1F04C91942BDF
:1025E0009C93ABA5BCA59C914AA9942B9C93ABA5AD
:1025F000BCA54C919AA9909594239C9386952150C3
:10260000310931F7DF91CF911F9108954C91909549
:102610009423E6CFEF92FF920F931F93CF93DF9314
:102620008091190390911A03892B09F493C020918A
:10263000310330913203409133035091340360E011
:1026400074E284EF90E00E94841E20513109410918
:10265000510956954795379527952093B80065E021
:1026600085E89AE00E94FA116091000361508CEFB6
:1026700092E00E94A8122091020330910303C90145
:10268000079697FD079623E0959587952A95E1F79C
:102690002091000330910103829F8001839F100DE0
:1026A000929F100D1124C0911B03D0911C038091A7
:1026B000190390911A030C0F1D1F009709F489C08C
:1026C00020911D0331E030934A0220934902109279
:1026D000480210924702DC01ED91FC910190F081DB
:1026E000E02D60E40995FF24F394EE24E3948091B7
:1026F000190390911A030C171D0709F442C0BFE19A
:10270000BF15D0F40E9413118091190390911A0300
:1027100020911D03E0924A02209349021092480240
:1027200010924702DC01ED91FC910190F081E02DC7
:1027300060E40995FF24F3948091190390911A03A2
:102740006991DC01ED91FC910190F081E02D0995FA
:10275000F394CDCF8091170390911803892B31F01A
:1027600080913A0390913B030E942F0AE0912B0342
:10277000F0912C0390818091300380958923808390
:102780006ECF0E9413118091190390911A03892B27
:1027900009F460C02091350330913603409137032E
:1027A0005091380360E074E284EF90E00E94841E50
:1027B000205131094109510956954795379527957B
:1027C0002093B800DF91CF911F910F91FF90EF9070
:1027D0000895E0912903F0912A03808190912F03BD
:1027E000892B80830C171D0771F2899120911703A3
:1027F00030911803232B19F00E94280AF3CF28E008
:1028000030E040E8E0912503F091260390912D03FC
:10281000582F5423D9F05081952B9083E0912703B2
:10282000F0912803908150912E03952B9083E09195
:102830002703F0912803508190912E0390959523C2
:102840009083469521503109E9F6CCCF508190957F
:102850009523E3CFE0912B03F0912C03808190919D
:102860003003892B8083AECF1F93CF93DF93EC018E
:10287000162F8D8D9E8D892BB1F12DA93EA94FA9C3
:1028800058AD60E074E284EF90E00E94841E205115
:102890003109410951095695479537952795209358
:1028A000B80066EA111167EACE010E94A8128D8D68
:1028B0009E8D892B41F129AD3AAD4BAD5CAD60E009
:1028C00074E284EF90E00E94841E20513109410996
:1028D000510956954795379527952093B800DF9174
:1028E000CF911F9108958B8D9C8D892B21F08EADFA
:1028F0009FAD0E942F0AEFA5F8A990818CA9809521
:1029000089238083CECFEFA5F8A980819CA9892B4C
:102910008083E5CF90E080E008952091020330911C
:102920000303C901079697FD079623E095958795C0
:102930002A95E1F72091000330910103829FA001C5
:10294000839F500D929F500D112470E060E08091A4
:102950001B0390911C030C94D61F0E94D11FFB01F6
:1029600001900020E9F73197AF01461B570BDC01BE
:10297000ED91FC910280F381E02D09948F929F925A
:10298000AF92BF92EF92FF920F931F93CF93DF937B
:10299000CDB7DEB7A1970FB6F894DEBF0FBECDBF9F
:1029A0007C01FA01CB0119A2223008F42AE08E0141
:1029B0000F5D1F4F822E912CB12CA12CBF01A501C0
:1029C00094010E94841EF901CA016A300CF5605D11
:1029D000D8016E938D01232B242B252B79F790E0C2
:1029E00080E0109721F0BD01C7010E94AF14A196AD
:1029F0000FB6F894DEBF0FBECDBFDF91CF911F9110
:102A00000F91FF90EF90BF90AF909F908F9008959F
:102A1000695CDECF85ED8093BC008091B701909119
:102A2000B801A091B901B091BA010796A11DB11DDD
:102A300023E0B695A795979587952A95D1F720918C
:102A4000BC0024FD03C01092000208954091B7011C
:102A50005091B8016091B9017091BA01452B462B94
:102A6000472B69F30097A105B10541F025E32A95AD
:102A7000F1F700000197A109B109E1CF8091B601FA
:102A80000C946D101F920F920FB60F9211242F937A
:102A90003F934F935F936F937F938F939F93AF93E6
:102AA000BF93EF93FF9380913B0290913C02A091E2
:102AB0003D02B0913E02892B8A2B8B2BD1F1909154
:102AC0003602E0913702F0913802808189278083B5
:102AD00080913B0290913C02A0913D02B0913E0258
:102AE000181619061A061B069CF480913B02909159
:102AF0003C02A0913D02B0913E020197A109B109AB
:102B000080933B0290933C02A0933D02B0933E021F
:102B1000FF91EF91BF91AF919F918F917F916F91B5
:102B20005F914F913F912F910F900FBE0F901F908B
:102B3000189580910001E4E8FAE0E4919FEF90930A
:102B40000001E13051F030F0E23069F060E00E94C5
:102B50008106DECF10926E00F9CF90916F009D7FBD
:102B600090936F00F3CF909170009D7F90937000D1
:102B700091E09093B0009091B100987F9460909311
:102B8000B1001092B300E2CF1F920F920FB60F92D6
:102B900011242F933F934F935F936F937F938F9362
:102BA0009F93AF93BF93EF93FF938BE492E00E94C8
:102BB000F205FF91EF91BF91AF919F918F917F911E
:102BC0006F915F914F913F912F910F900FBE0F909A
:102BD0001F9018951F920F920FB60F9211242F93EA
:102BE0008F939F93EF93FF93E0915B02F0915C02D0
:102BF0008081E0916102F091620282FD1BC09081B0
:102C0000809164028F5F8F7320916502821741F07B
:102C1000E0916402F0E0E55BFD4F958F80936402E4
:102C2000FF91EF919F918F912F910F900FBE0F9079
:102C30001F9018958081F4CF1F920F920FB60F92BC
:102C400011242F933F938F939F93AF93BF938091C2
:102C5000270290912802A0912902B0912A02309176
:102C6000260223E0230F2D3758F50196A11DB11D33
:102C7000209326028093270290932802A093290292
:102C8000B0932A0280912B0290912C02A0912D02E8
:102C9000B0912E020196A11DB11D80932B0290933D
:102CA0002C02A0932D02B0932E02BF91AF919F9161
:102CB0008F913F912F910F900FBE0F901F901895FD
:102CC00026E8230F0296A11DB11DD2CF1F920F92AD
:102CD0000FB60F9211242F933F934F935F936F93EF
:102CE0007F938F939F93AF93BF93EF93FF938091C5
:102CF000B900887F803609F44AC0F0F5883209F4BB
:102D0000A7C018F5803109F49BC0B8F4882309F4F2
:102D1000F9C0883009F494C0FF91EF91BF91AF9151
:102D20009F918F917F916F915F914F913F912F91E3
:102D30000F900FBE0F901F901895883109F488C02E
:102D4000803251F78093FF0114C0803409F49DC094
:102D500040F48033B9F38833F9F68093FF0185ECB2
:102D6000B0C0803509F485C0883509F496C0883430
:102D700099F60E940A15D0CF883909F48CC038F52D
:102D8000883729F050F4883611F0803729F683E02F
:102D9000809300021092FE0157C0883809F47BC06E
:102DA000803919F0803809F0B7CF8091FE01803268
:102DB00008F071C0E091FE0181E08E0F8093FE016A
:102DC0008091BB00F0E0E252FE4F80833DC0803B2B
:102DD00039F0E0F4803A09F479C0883A09F09CCFE0
:102DE00084E0809300021092DD011092DC01E091FA
:102DF0003202F091330209958091DC0181110FC0FC
:102E000081E08093DC011092BC0109C0803C09F490
:102E1000A6CF883C09F4A3CF883B09F07DCFE09191
:102E2000DD0181E08E0F8093DD01F0E0E454FE4F80
:102E300080818093BB009091DD018091DC0129C0ED
:102E4000809125028093BB0085EC8093BC0064CF09
:102E50009091240280912302981758F5E091240262
:102E600081E08E0F80932402F0E0ED5FFD4F8081C2
:102E7000E9CFE091240281E08E0F809324028091BB
:102E8000BB00F0E0ED5FFD4F8083909124028091C4
:102E900023029817C8F285E8D8CFE091240281E098
:102EA0008E0F809324028091BB00F0E0ED5FFD4F18
:102EB00080838091020281115CCF81E080930102C6
:102EC00084EA8093BC001092000226CF85EC8093A8
:102ED000BC00109200028091FE01803230F4E0913B
:102EE000FE01F0E0E252FE4F10826091FE0170E0C0
:102EF000E0913002F09131028EED91E0099510924F
:102F0000FE010ACF1092FF0134CFCF92DF92EF92F1
:102F1000FF920F931F93E82FF92F05C0015011095D
:102F20002109310961F1908196239417B9F305C005
:102F3000015011092109310911F19081962394134F
:102F4000F7CFC12CD12CE12CF12C0AC08FEFC81A7D
:102F5000D80AE80AF80A0C151D052E053F0579F078
:102F600080818623841791F36C2D7D2D8E2D9F2DCE
:102F70001F910F91FF90EF90DF90CF90089560E048
:102F800070E080E090E01F910F91FF90EF90DF9054
:102F9000CF9008950F931F93CF93DF93EBE4F2E06C
:102FA0001382128248EE53E060E070E04483558360
:102FB000668377838BE091E09183808385EC90E05A
:102FC0009587848784EC90E09787868780EC90E0F3
:102FD000918B808B81EC90E0938B828B82EC90E0E4
:102FE000958B848B86EC90E0978B868B118E128E5E
:102FF000138E148EA0EFB2E013961C921E921297BD
:1030000014964D935D936D937C9317978DE191E0AA
:1030100011969C938E93ECEFF2E01382128220E8DB
:1030200030E03583248380E290E097838683318784
:10303000208793878287168A1586148617861686B8
:1030400081E0858B848B2FEF3FEF338B228B318B8D
:10305000208B878B108E128E118E8FE291E09183E0
:103060008083148E138EB68FA58F10A2178E8FEFCC
:1030700084A385A386A387A380A780E89AE1A6E01E
:10308000B0E085AB96ABA7ABB0AF80EA96E8A1E025
:10309000B0E081AF92AFA3AFB4AF80E586AF17AE1B
:1030A000CCEED2E001E010E01983088383E08A834C
:1030B00084E08B8361E083E00E94CD0661E08B8138
:1030C0000E94CD0660E08A810E94810660E08B81CB
:1030D0000E948106C8EED2E0198308838AE08A83C1
:1030E0008BE08B8361E08AE00E94CD0661E08B81FA
:1030F0000E94CD0660E08A810E94810660E08B819B
:10310000DF91CF911F910F910C948106789484B533
:10311000826084BD84B5816084BD85B5826085BDD3
:1031200085B5816085BD80916E00816080936E0061
:103130001092810080918100826080938100809153
:103140008100816080938100809180008160809304
:1031500080008091B10084608093B1008091B000C4
:1031600081608093B00080917A00846080937A00BF
:1031700080917A00826080937A0080917A008160E9
:1031800080937A0080917A00806880937A00109210
:10319000C100E0915B02F0915C0282E08083E091EB
:1031A0005702F09158021082E0915902F0915A02B0
:1031B0008FEC808310926302E0915F02F0916002D5
:1031C00086E08083E0915D02F0915E028081806103
:1031D0008083E0915D02F0915E028081886080834F
:1031E000E0915D02F0915E02808180688083E091D1
:1031F0005D02F0915E0280818F7D808361E08DE0D1
:103200000E94CD0660E08CE00E94CD0661E088E07F
:103210000E94CD0680911B0390911C03892B11F114
:103220000E948D14209102033091030380910003CA
:1032300090910103213231050CF02BC1B90160528C
:10324000710977FF02C06F5F7F4F75956795835750
:10325000910997FD019600E210E023E730E048EA8B
:1032600055E02AC12091020330910303C90107965A
:1032700097FD0796B3E095958795BA95E1F720916C
:10328000000330910103AC01429FC001439F900DA8
:10329000529F900D11240E94AC1E90931C038093AA
:1032A0001B03892B09F0BCCF0E948D1410920903D7
:1032B0001092080310920B0310920A0381E090E031
:1032C00090930F0380930E0390930D0380930C0350
:1032D00083E0809310038093110367E571E08CEF26
:1032E00092E00E94AF140E940A1360ED77E080E044
:1032F00090E00E9480076AE5262E6AE0362E76E985
:10330000472E512C612C712C42E0942EAA24A394B8
:10331000B12CC5E6D0E060E08DE00E94810683E03C
:1033200090E00197F1F761E08DE00E9481068FE067
:1033300090E00197F1F760E08DE00E948106EEE5F4
:10334000FAE06491ECE7FAE08491E82FF0E0EE0F08
:10335000FF1FE85BF54F8591949100E412E42FE0A4
:1033600030E0462F0E948517611571058105910592
:1033700029F06F5F7F4F8F4F9F4F9F700E948B1D73
:1033800026E933E44BE05DE30E94EF1D20E030E0EE
:1033900040E05FE30E94EF1D0E94531D8B016B0113
:1033A000770FEE08FF082AE0B701A601F7FE0DC06F
:1033B0006DE28BE492E00E94140644275527BA017F
:1033C0004C195D096E097F092AE08BE492E00E94A6
:1033D000BE14219709F09FCF0E948D14109209030B
:1033E0001092080310920B0310920A03909210039C
:1033F00090921103B0920F03A0920E03B0920D03AE
:10340000A0920C036DE571E08CEF92E00E94AF1486
:10341000F7FE3EC26DE28CEF92E00E946D0C4427F5
:103420005527BA014C195D096E097F092AE08CEF16
:1034300092E00E94BE140E940A13053111050CF09F
:1034400016C370E060E08CEE92E00E94B20770E07C
:1034500060E088EE92E00E94B2078091000188301F
:1034600009F01DC2E4E8FAE0C491C7FDBAC261E008
:1034700088E00E94CD06CC2309F483C2C23009F053
:1034800094C28091B100887F84608093B10089EFFD
:10349000DEC2B9016054710977FF02C06F5F7F4FD0
:1034A000759567958255910997FD019600E410E0A6
:1034B00022E530E048E857E0959587950E94190F7E
:1034C0008CE380931E038091190390911A03892B3A
:1034D00009F4E8C08091020390910303809709F4F6
:1034E000DFC08DE380931D031092350210923402E9
:1034F00010924802109247020E944F1082E795E016
:10350000909333028093320283E795E090933102E7
:10351000809330028091240387FD1EC061E00E94E9
:10352000CD0661E0809124030E94810661E070E095
:1035300080E090E00E94800760E0809124030E9478
:1035400081066AE070E080E090E00E94800761E020
:10355000809124030E9481068091190390911A039F
:10356000892B09F45EC120913103309132034091DF
:1035700033035091340360E074E284EF90E00E94E2
:10358000841E2051310941095109569547953795B7
:1035900027952093B80064E084EA95E00E94FA1130
:1035A0006091020361508CEF92E00E94A81264E0E7
:1035B00080EA95E00E94FA1180911E0364E1813057
:1035C00009F460E18CEF92E00E94A81264E08CE9BB
:1035D00095E00E94FA118FE88093390380910003EF
:1035E000909101038038910509F034C18091020364
:1035F000909103038034910509F03CC180911E0332
:10360000813009F425C18FEC80933903C2E16AED62
:103610008CEF92E00E94A8126C2F8CEF92E00E9437
:10362000A81261E88CEF92E00E94A8126091390321
:103630008CEF92E00E94A81269ED8CEF92E00E945C
:10364000A81280911E0361EF813009F462E28CEFD1
:1036500092E00E94A81266E086E995E00E94FA11C5
:103660008091190390911A03892B09F407C12091C5
:10367000350330913603409137035091380360E0B1
:1036800074E284EF90E00E94841E205131094109C8
:10369000510956954795379527952093B80004CE44
:1036A0008CE320CF61E0809122030E94CD0661E08F
:1036B000809123030E94CD0680912203082E000CE6
:1036C000990BFC01E059F54FE491F0E0EE0FFF1F7C
:1036D000EA59F54F2591349130932A032093290319
:1036E000FC01EE5AF54FE491E0932F038091230300
:1036F000082E000C990BFC01E059F54FE491F0E025
:10370000EE0FFF1FEA59F54FA591B491B0932C032A
:10371000A0932B03FC01EE5AF54FE491E0933003A4
:103720008C91E82BEC938091170390911803892BCF
:1037300009F434C0CFB7F89480912F02811127C0CB
:10374000EAE7FAE08491ECE5FAE09491E82FF0E002
:10375000EE0FFF1FE457FA4FA591B491EC91E923C6
:1037600021F461E08AE00E94810661E08AE00E9423
:10377000CD068CB580618CBD8CB580648CBD61E05C
:103780008DE00E94CD0661E08BE00E94CD06809125
:103790002F028F5F80932F02CFBFBCCE61E080915C
:1037A00020030E94CD0661E0809121030E94CD0696
:1037B00080912003082E000C990BFC01E059F54F75
:1037C000E491F0E0EE0FFF1FEA59F54F2591349197
:1037D0003093260320932503FC01EE5AF54FE49124
:1037E000E0932D0380912103082E000C990BFC011E
:1037F000E059F54FE491F0E0EE0FFF1FEA59F54F65
:10380000A591B491B0932803A0932703FC01EE5A2D
:10381000F54FE491E0932E038C91E095E823EC932F
:1038200079CE8091170390911803892B31F0809104
:103830003A0390913B030E942F0AE0912B03F091F1
:103840002C03908180913003809589238083A3CEBF
:103850008FE9DACE8036910569F480910203909168
:103860000303409739F480911E03813029F08FEAD9
:1038700080933903C2E0CBCE80E1FACFE0912B03F5
:10388000F0912C03808190913003892B80830CCDA3
:103890002AE0A801012E000C660B770BC8CD8F3FE4
:1038A00009F09FC088E080930001E4E8FAE0C49149
:1038B000CF3F09F496C0C13021F150F0C23009F475
:1038C0003EC0C7FD8EC061E088E00E94CD06D6CD27
:1038D00014BC15BC84B5826084BD85B5816085BD8E
:1038E000E8E7FAE08491E82FF0E0EE0FFF1FEA59D5
:1038F000F54F85919491F101849180933A02C0E053
:10390000B6CD109280001092810080918100886075
:103910008093810080918100816080938100E8E73D
:10392000FAE08491E82FF0E0EE0FFF1FEA59F54F1F
:1039300085919491F10184918093390298CD1092F0
:10394000B0001092B1008091B00082608093B0000E
:103950008091B10081608093B100E8E7FAE0849142
:10396000E82FF0E0EE0FFF1FEA59F54F8591949193
:103970009093380280933702F1018491809336024C
:1039800076CD85B5887F836085BD89EF87BD409200
:103990004302509244026092450270924602809126
:1039A0006E00826080936E001CC0C13009F048C078
:1039B00080918100887F8160809381004FE75EE382
:1039C000509389004093880040923F0250924002F9
:1039D000609241027092420280916F0082608093F7
:1039E0006F000E948D141092090310920803109228
:1039F0000B0310920A03909210039092110368E651
:103A000071E08CEF92E00E94AF1462E771E08CEFFE
:103A100092E00E94AF140E940A1368EE73E080E007
:103A200090E00E94800780E090E0892B09F471CC3F
:103A30000E94DE05882309F467CC0E94000064CC54
:103A4000C23021F0C111CDCF8FE7A0CF8FE7809397
:103A5000B30040923B0250923C0260923D02709251
:103A60003E0280917000826080937000BACF6FEF49
:103A700070E08CEE92E00E94B2076FEF70E088EE8B
:103A800092E00E94B207CFCF8FE291E09093FD02C7
:103A90008093FC0280911B0390911C03009711F00E
:103AA0000C94481F08950E945A1D6894B1110C94FB
:103AB000E91D08950E94CE1D88F09F5798F0B92FF8
:103AC0009927B751B0F0E1F0660F771F881F991F53
:103AD0001AF0BA95C9F714C0B13091F00E94E81DF0
:103AE000B1E008950C94E81D672F782F8827B85F00
:103AF00039F0B93FCCF3869577956795B395D9F7AB
:103B00003EF490958095709561957F4F8F4F9F4FB4
:103B10000895E89409C097FB3EF4909580957095C0
:103B200061957F4F8F4F9F4F9923A9F0F92F96E909
:103B3000BB279395F695879577956795B795F1117E
:103B4000F8CFFAF4BB0F11F460FF1BC06F5F7F4F1B
:103B50008F4F9F4F16C0882311F096E911C077232D
:103B600021F09EE8872F762F05C0662371F096E836
:103B7000862F70E060E02AF09A95660F771F881F05
:103B8000DAF7880F9695879597F9089557FD90581D
:103B9000440F551F59F05F3F71F04795880F97FB11
:103BA000991F61F09F3F79F08795089512161306CB
:103BB0001406551FF2CF4695F1DF08C016161706FA
:103BC0001806991FF1CF869571056105089408952F
:103BD000E894BB2766277727CB0197F908950E94C1
:103BE000021E0C94731E0E94651E38F00E946C1E0B
:103BF00020F0952311F00C945C1E0C94621E11248D
:103C00000C94E91D0E94C61D70F3959FC1F3950F9A
:103C100050E0551F629FF001729FBB27F00DB11D50
:103C2000639FAA27F00DB11DAA1F649F6627B00DE0
:103C3000A11D661F829F2227B00DA11D621F739FC9
:103C4000B00DA11D621F839FA00D611D221F749FD7
:103C50003327A00D611D231F849F600D211D822F1E
:103C6000762F6A2F11249F5750409AF0F1F0882345
:103C70004AF0EE0FFF1FBB1F661F771F881F915072
:103C80005040A9F79E3F510580F00C945C1E0C94A7
:103C9000E91D5F3FE4F3983ED4F3869577956795E9
:103CA000B795F795E7959F5FC1F7FE2B880F911D9C
:103CB0009695879597F9089597F99F6780E870E042
:103CC00060E008959FEF80EC089500240A94161692
:103CD000170618060906089500240A9412161306FA
:103CE000140605060895092E0394000C11F4882388
:103CF00052F0BB0F40F4BF2B11F460FF04C06F5FA4
:103D00007F4F8F4F9F4F0895A1E21A2EAA1BBB1B16
:103D1000FD010DC0AA1FBB1FEE1FFF1FA217B30797
:103D2000E407F50720F0A21BB30BE40BF50B661FAD
:103D3000771F881F991F1A9469F760957095809571
:103D400090959B01AC01BD01CF010895EE0FFF1FBF
:103D50000590F491E02D09940F931F93CF93DF9377
:103D60008230910510F482E090E0E0913E03F09102
:103D70003F0330E020E0B0E0A0E0309799F4211557
:103D8000310509F44AC0281B390B24303105D8F518
:103D90008A819B816115710589F1FB01938382837F
:103DA000FE0111C0408151810281138148175907DA
:103DB000E0F04817590799F4109761F012960C93A8
:103DC000129713961C933296CF01DF91CF911F91DA
:103DD0000F91089500933E0310933F03F4CF2115F4
:103DE000310551F04217530738F0A901DB019A0160
:103DF000BD01DF01F801C1CFEF01F9CF90933F037F
:103E000080933E03CDCFFE01E20FF31F8193919388
:103E10002250310939832883D7CF20913C03309138
:103E20003D03232B41F42091030130910401309391
:103E30003D0320933C0320910101309102012115A3
:103E4000310541F42DB73EB740910501509106016F
:103E5000241B350BE0913C03F0913D03E217F3077F
:103E6000A0F42E1B3F0B2817390778F0AC014E5FEA
:103E70005F4F2417350748F04E0F5F1F50933D03E7
:103E800040933C03819391939FCFF0E0E0E09CCF7F
:103E9000CF93DF930097E9F0FC01329713821282EF
:103EA000A0913E03B0913F03ED0130E020E0109778
:103EB000A1F420813181820F931F20913C03309126
:103EC0003D032817390709F061C0F0933D03E093E3
:103ED0003C03DF91CF910895EA01CE17DF07E8F5A3
:103EE0004A815B819E0141155105B1F7E901FB83D0
:103EF000EA8349915991C40FD51FEC17FD0761F46E
:103F0000808191810296840F951FE90199838883AE
:103F1000828193819B838A83F0E0E0E012968D9109
:103F20009C9113970097B9F52D913C911197CD0174
:103F30000296820F931F20913C0330913D03281776
:103F4000390739F6309751F510923F0310923E032E
:103F5000B0933D03A0933C03BCCFD383C283408185
:103F60005181840F951FC817D90761F44E5F5F4FC9
:103F700088819981480F591F518340838A819B8191
:103F8000938382832115310509F0B0CFF0933F036D
:103F9000E0933E039ECFFD01DC01C0CF138212826D
:103FA000D7CF81E090E0F8940C94DD1FDC0101C0D4
:103FB0006D9341505040E0F7089515E0C6E4D5E018
:103FC00004C0FE010E94A61E2196C734D107C9F77E
:043FD000F894FFCF93
:103FD400FF0000400380000000000014067405A1E7
:103FE400056106D205B005C40500000000E410B761
:103FF400108A147105B0109D108E10000000006D21
:104004000C74058A14271078097105120FEA0E063C
:104014000FFA0E7A0F7105330A3414E808310933A4
:104024000E160E9E0D3F0D204F70656E0064697371
:1040340074616E6365203A004261727269636164FF
:0640440065000D0A0000FA
:107E0000112484B714BE81FFF0D085E080938100F7
:107E100082E08093C00088E18093C10086E0809377
:107E2000C20080E18093C4008EE0C9D0259A86E02C
:107E300020E33CEF91E0309385002093840096BBD3
:107E4000B09BFECF1D9AA8958150A9F7CC24DD24C4
:107E500088248394B5E0AB2EA1E19A2EF3E0BF2EE7
:107E6000A2D0813461F49FD0082FAFD0023811F036
:107E7000013811F484E001C083E08DD089C08234E0
:107E800011F484E103C0853419F485E0A6D080C0E4
:107E9000853579F488D0E82EFF2485D0082F10E0AE
:107EA000102F00270E291F29000F111F8ED06801E7
:107EB0006FC0863521F484E090D080E0DECF843638
:107EC00009F040C070D06FD0082F6DD080E0C81688
:107ED00080E7D80618F4F601B7BEE895C0E0D1E017
:107EE00062D089930C17E1F7F0E0CF16F0E7DF06D8
:107EF00018F0F601B7BEE89568D007B600FCFDCFD4
:107F0000A601A0E0B1E02C9130E011968C91119780
:107F100090E0982F8827822B932B1296FA010C0160
:107F200087BEE89511244E5F5F4FF1E0A038BF0790
:107F300051F7F601A7BEE89507B600FCFDCF97BE46
:107F4000E89526C08437B1F42ED02DD0F82E2BD052
:107F50003CD0F601EF2C8F010F5F1F4F84911BD097
:107F6000EA94F801C1F70894C11CD11CFA94CF0C13
:107F7000D11C0EC0853739F428D08EE10CD085E9AC
:107F80000AD08FE07ACF813511F488E018D01DD067
:107F900080E101D065CF982F8091C00085FFFCCF94
:107FA0009093C60008958091C00087FFFCCF809118
:107FB000C00084FD01C0A8958091C6000895E0E648
:107FC000F0E098E1908380830895EDDF803219F02E
:107FD00088E0F5DFFFCF84E1DECF1F93182FE3DFCA
:107FE0001150E9F7F2DF1F91089580E0E8DFEE27F6
:047FF000FF270994CA
:027FFE00040479
:0400000300007E007B
:00000001FF
